{
  "transactions": [
    {
      "hash": "0xf4292abced869a1a369cc30124fc4f17d8c1fce16f63ca67ef44e639e7b4f190",
      "transactionType": "CALL",
      "contractName": null,
      "contractAddress": "0xe4375a096fe20176b8fd9056c4aa699b092246ab",
      "function": "claim(address)",
      "arguments": [
        "0x7646e7e5E871d0d33624321c3893A89Ca07f4f02"
      ],
      "transaction": {
        "from": "0x7646e7e5e871d0d33624321c3893a89ca07f4f02",
        "to": "0xe4375a096fe20176b8fd9056c4aa699b092246ab",
        "gas": "0xa1d9",
        "value": "0x0",
        "input": "0x1e83409a0000000000000000000000007646e7e5e871d0d33624321c3893a89ca07f4f02",
        "nonce": "0xa",
        "chainId": "0x88bb0"
      },
      "additionalContracts": [],
      "isFixedGasLimit": false
    },
    {
      "hash": "0xf7ec1618a11869e5e037dba91476b362ff2579264ad7b59e5069284421f64a0f",
      "transactionType": "CALL",
      "contractName": null,
      "contractAddress": "0xe4375a096fe20176b8fd9056c4aa699b092246ab",
      "function": "claim(address)",
      "arguments": [
        "0x7646e7e5E871d0d33624321c3893A89Ca07f4f02"
      ],
      "transaction": {
        "from": "0x7646e7e5e871d0d33624321c3893a89ca07f4f02",
        "to": "0xe4375a096fe20176b8fd9056c4aa699b092246ab",
        "gas": "0xa1d9",
        "value": "0x0",
        "input": "0x1e83409a0000000000000000000000007646e7e5e871d0d33624321c3893a89ca07f4f02",
        "nonce": "0xb",
        "chainId": "0x88bb0"
      },
      "additionalContracts": [],
      "isFixedGasLimit": false
    },
    {
      "hash": "0xe570d723b5e1934a7a34ad7f27db48fd4cbb8be0a0d782e52e953a5432eeccfe",
      "transactionType": "CALL",
      "contractName": null,
      "contractAddress": "0xe4375a096fe20176b8fd9056c4aa699b092246ab",
      "function": "claim(address)",
      "arguments": [
        "0x7646e7e5E871d0d33624321c3893A89Ca07f4f02"
      ],
      "transaction": {
        "from": "0x7646e7e5e871d0d33624321c3893a89ca07f4f02",
        "to": "0xe4375a096fe20176b8fd9056c4aa699b092246ab",
        "gas": "0xa1d9",
        "value": "0x0",
        "input": "0x1e83409a0000000000000000000000007646e7e5e871d0d33624321c3893a89ca07f4f02",
        "nonce": "0xc",
        "chainId": "0x88bb0"
      },
      "additionalContracts": [],
      "isFixedGasLimit": false
    },
    {
      "hash": "0xdade0abf8fb1061998876a9bcf9ca741648fe02b526cd16bf62d1fe1968c9a49",
      "transactionType": "CALL",
      "contractName": null,
      "contractAddress": "0xe4375a096fe20176b8fd9056c4aa699b092246ab",
      "function": "claim(address)",
      "arguments": [
        "0x7646e7e5E871d0d33624321c3893A89Ca07f4f02"
      ],
      "transaction": {
        "from": "0x7646e7e5e871d0d33624321c3893a89ca07f4f02",
        "to": "0xe4375a096fe20176b8fd9056c4aa699b092246ab",
        "gas": "0xa1d9",
        "value": "0x0",
        "input": "0x1e83409a0000000000000000000000007646e7e5e871d0d33624321c3893a89ca07f4f02",
        "nonce": "0xd",
        "chainId": "0x88bb0"
      },
      "additionalContracts": [],
      "isFixedGasLimit": false
    },
    {
      "hash": "0x01610901a95de99d512c31a2da6524d2800407270f4634d4667b39a9a220f10c",
      "transactionType": "CALL",
      "contractName": null,
      "contractAddress": "0xe4375a096fe20176b8fd9056c4aa699b092246ab",
      "function": "claim(address)",
      "arguments": [
        "0x7646e7e5E871d0d33624321c3893A89Ca07f4f02"
      ],
      "transaction": {
        "from": "0x7646e7e5e871d0d33624321c3893a89ca07f4f02",
        "to": "0xe4375a096fe20176b8fd9056c4aa699b092246ab",
        "gas": "0xa1d9",
        "value": "0x0",
        "input": "0x1e83409a0000000000000000000000007646e7e5e871d0d33624321c3893a89ca07f4f02",
        "nonce": "0xe",
        "chainId": "0x88bb0"
      },
      "additionalContracts": [],
      "isFixedGasLimit": false
    },
    {
      "hash": "0xff48d19792b3c954904fb4631d68e9bb0e1353d1e88179b384e8fb538b1cde6e",
      "transactionType": "CALL",
      "contractName": null,
      "contractAddress": "0xe4375a096fe20176b8fd9056c4aa699b092246ab",
      "function": "claim(address)",
      "arguments": [
        "0x7646e7e5E871d0d33624321c3893A89Ca07f4f02"
      ],
      "transaction": {
        "from": "0x7646e7e5e871d0d33624321c3893a89ca07f4f02",
        "to": "0xe4375a096fe20176b8fd9056c4aa699b092246ab",
        "gas": "0xa1d9",
        "value": "0x0",
        "input": "0x1e83409a0000000000000000000000007646e7e5e871d0d33624321c3893a89ca07f4f02",
        "nonce": "0xf",
        "chainId": "0x88bb0"
      },
      "additionalContracts": [],
      "isFixedGasLimit": false
    },
    {
      "hash": "0xa1bb5cf9912ca270a304a0eae5290171b0cec1c7332fbf43da902baaa0606ec8",
      "transactionType": "CALL",
      "contractName": null,
      "contractAddress": "0xe4375a096fe20176b8fd9056c4aa699b092246ab",
      "function": "claim(address)",
      "arguments": [
        "0x7646e7e5E871d0d33624321c3893A89Ca07f4f02"
      ],
      "transaction": {
        "from": "0x7646e7e5e871d0d33624321c3893a89ca07f4f02",
        "to": "0xe4375a096fe20176b8fd9056c4aa699b092246ab",
        "gas": "0xa1d9",
        "value": "0x0",
        "input": "0x1e83409a0000000000000000000000007646e7e5e871d0d33624321c3893a89ca07f4f02",
        "nonce": "0x10",
        "chainId": "0x88bb0"
      },
      "additionalContracts": [],
      "isFixedGasLimit": false
    },
    {
      "hash": "0xd0d479c6264e724054fd26d143ee089e43ffcd64f2d183f4cbbcc6d1da470fa5",
      "transactionType": "CALL",
      "contractName": null,
      "contractAddress": "0xe4375a096fe20176b8fd9056c4aa699b092246ab",
      "function": "claim(address)",
      "arguments": [
        "0x7646e7e5E871d0d33624321c3893A89Ca07f4f02"
      ],
      "transaction": {
        "from": "0x7646e7e5e871d0d33624321c3893a89ca07f4f02",
        "to": "0xe4375a096fe20176b8fd9056c4aa699b092246ab",
        "gas": "0xa1d9",
        "value": "0x0",
        "input": "0x1e83409a0000000000000000000000007646e7e5e871d0d33624321c3893a89ca07f4f02",
        "nonce": "0x11",
        "chainId": "0x88bb0"
      },
      "additionalContracts": [],
      "isFixedGasLimit": false
    },
    {
      "hash": "0xe37ff2e543f44e36c493040912575ad4744dc253f77a53eb252af03d9393c19b",
      "transactionType": "CALL",
      "contractName": null,
      "contractAddress": "0xe4375a096fe20176b8fd9056c4aa699b092246ab",
      "function": "claim(address)",
      "arguments": [
        "0x7646e7e5E871d0d33624321c3893A89Ca07f4f02"
      ],
      "transaction": {
        "from": "0x7646e7e5e871d0d33624321c3893a89ca07f4f02",
        "to": "0xe4375a096fe20176b8fd9056c4aa699b092246ab",
        "gas": "0xa1d9",
        "value": "0x0",
        "input": "0x1e83409a0000000000000000000000007646e7e5e871d0d33624321c3893a89ca07f4f02",
        "nonce": "0x12",
        "chainId": "0x88bb0"
      },
      "additionalContracts": [],
      "isFixedGasLimit": false
    },
    {
      "hash": "0xb1ff8561f5ef91a8fce198c1a99879c9204bb23709af4e3abf2226f49f0ebffe",
      "transactionType": "CALL",
      "contractName": null,
      "contractAddress": "0xe4375a096fe20176b8fd9056c4aa699b092246ab",
      "function": "claim(address)",
      "arguments": [
        "0x7646e7e5E871d0d33624321c3893A89Ca07f4f02"
      ],
      "transaction": {
        "from": "0x7646e7e5e871d0d33624321c3893a89ca07f4f02",
        "to": "0xe4375a096fe20176b8fd9056c4aa699b092246ab",
        "gas": "0xa1d9",
        "value": "0x0",
        "input": "0x1e83409a0000000000000000000000007646e7e5e871d0d33624321c3893a89ca07f4f02",
        "nonce": "0x13",
        "chainId": "0x88bb0"
      },
      "additionalContracts": [],
      "isFixedGasLimit": false
    },
    {
      "hash": "0x4c70f28dfbac5b287ea66308acf492e5a6f5af29382d513e1d9cb8f05f9a8735",
      "transactionType": "CALL",
      "contractName": null,
      "contractAddress": "0xe4375a096fe20176b8fd9056c4aa699b092246ab",
      "function": "claim(address)",
      "arguments": [
        "0x7646e7e5E871d0d33624321c3893A89Ca07f4f02"
      ],
      "transaction": {
        "from": "0x7646e7e5e871d0d33624321c3893a89ca07f4f02",
        "to": "0xe4375a096fe20176b8fd9056c4aa699b092246ab",
        "gas": "0xa1d9",
        "value": "0x0",
        "input": "0x1e83409a0000000000000000000000007646e7e5e871d0d33624321c3893a89ca07f4f02",
        "nonce": "0x14",
        "chainId": "0x88bb0"
      },
      "additionalContracts": [],
      "isFixedGasLimit": false
    },
    {
      "hash": "0xa25ae92945d0e9979664bb1fdc8a98e55af22f2a280328a426c0d2600b351435",
      "transactionType": "CALL",
      "contractName": null,
      "contractAddress": "0xe4375a096fe20176b8fd9056c4aa699b092246ab",
      "function": "claim(address)",
      "arguments": [
        "0x7646e7e5E871d0d33624321c3893A89Ca07f4f02"
      ],
      "transaction": {
        "from": "0x7646e7e5e871d0d33624321c3893a89ca07f4f02",
        "to": "0xe4375a096fe20176b8fd9056c4aa699b092246ab",
        "gas": "0xa1d9",
        "value": "0x0",
        "input": "0x1e83409a0000000000000000000000007646e7e5e871d0d33624321c3893a89ca07f4f02",
        "nonce": "0x15",
        "chainId": "0x88bb0"
      },
      "additionalContracts": [],
      "isFixedGasLimit": false
    },
    {
      "hash": "0xd9c42c9bc285f3cb6509275a79bc059fbf11bf54326837697f10bae56df116ce",
      "transactionType": "CALL",
      "contractName": null,
      "contractAddress": "0xe4375a096fe20176b8fd9056c4aa699b092246ab",
      "function": "claim(address)",
      "arguments": [
        "0x7646e7e5E871d0d33624321c3893A89Ca07f4f02"
      ],
      "transaction": {
        "from": "0x7646e7e5e871d0d33624321c3893a89ca07f4f02",
        "to": "0xe4375a096fe20176b8fd9056c4aa699b092246ab",
        "gas": "0xa1d9",
        "value": "0x0",
        "input": "0x1e83409a0000000000000000000000007646e7e5e871d0d33624321c3893a89ca07f4f02",
        "nonce": "0x16",
        "chainId": "0x88bb0"
      },
      "additionalContracts": [],
      "isFixedGasLimit": false
    },
    {
      "hash": "0xaf3eb0edd55819db679b1de5e6335df4c8b686ca06c14d7a5bc9c528612b08a7",
      "transactionType": "CALL",
      "contractName": null,
      "contractAddress": "0xe4375a096fe20176b8fd9056c4aa699b092246ab",
      "function": "claim(address)",
      "arguments": [
        "0x7646e7e5E871d0d33624321c3893A89Ca07f4f02"
      ],
      "transaction": {
        "from": "0x7646e7e5e871d0d33624321c3893a89ca07f4f02",
        "to": "0xe4375a096fe20176b8fd9056c4aa699b092246ab",
        "gas": "0xa1d9",
        "value": "0x0",
        "input": "0x1e83409a0000000000000000000000007646e7e5e871d0d33624321c3893a89ca07f4f02",
        "nonce": "0x17",
        "chainId": "0x88bb0"
      },
      "additionalContracts": [],
      "isFixedGasLimit": false
    },
    {
      "hash": "0x6b05ae0af8948fa4ca2ac37e1dfec6990da23d4a636098b95d31a9516aa2ff3f",
      "transactionType": "CALL",
      "contractName": null,
      "contractAddress": "0xe4375a096fe20176b8fd9056c4aa699b092246ab",
      "function": "claim(address)",
      "arguments": [
        "0x7646e7e5E871d0d33624321c3893A89Ca07f4f02"
      ],
      "transaction": {
        "from": "0x7646e7e5e871d0d33624321c3893a89ca07f4f02",
        "to": "0xe4375a096fe20176b8fd9056c4aa699b092246ab",
        "gas": "0xa1d9",
        "value": "0x0",
        "input": "0x1e83409a0000000000000000000000007646e7e5e871d0d33624321c3893a89ca07f4f02",
        "nonce": "0x18",
        "chainId": "0x88bb0"
      },
      "additionalContracts": [],
      "isFixedGasLimit": false
    },
    {
      "hash": "0xe0095e478f5b05df9879d34b34765c748c9bfde4dec2ff847acdd31c9f6bad76",
      "transactionType": "CALL",
      "contractName": null,
      "contractAddress": "0xe4375a096fe20176b8fd9056c4aa699b092246ab",
      "function": "claim(address)",
      "arguments": [
        "0x7646e7e5E871d0d33624321c3893A89Ca07f4f02"
      ],
      "transaction": {
        "from": "0x7646e7e5e871d0d33624321c3893a89ca07f4f02",
        "to": "0xe4375a096fe20176b8fd9056c4aa699b092246ab",
        "gas": "0xa1d9",
        "value": "0x0",
        "input": "0x1e83409a0000000000000000000000007646e7e5e871d0d33624321c3893a89ca07f4f02",
        "nonce": "0x19",
        "chainId": "0x88bb0"
      },
      "additionalContracts": [],
      "isFixedGasLimit": false
    },
    {
      "hash": "0x6ac60a8006d0134ed57bdf5baea539685087b9db2d09e07c70d2c917b4a7d24e",
      "transactionType": "CALL",
      "contractName": null,
      "contractAddress": "0xe4375a096fe20176b8fd9056c4aa699b092246ab",
      "function": "claim(address)",
      "arguments": [
        "0x7646e7e5E871d0d33624321c3893A89Ca07f4f02"
      ],
      "transaction": {
        "from": "0x7646e7e5e871d0d33624321c3893a89ca07f4f02",
        "to": "0xe4375a096fe20176b8fd9056c4aa699b092246ab",
        "gas": "0xa1d9",
        "value": "0x0",
        "input": "0x1e83409a0000000000000000000000007646e7e5e871d0d33624321c3893a89ca07f4f02",
        "nonce": "0x1a",
        "chainId": "0x88bb0"
      },
      "additionalContracts": [],
      "isFixedGasLimit": false
    },
    {
      "hash": "0x94c7c220d23e853c686c9bdecba62682ef58d52e6ac97a5e17b19cf185a68eb6",
      "transactionType": "CALL",
      "contractName": null,
      "contractAddress": "0xe4375a096fe20176b8fd9056c4aa699b092246ab",
      "function": "claim(address)",
      "arguments": [
        "0x7646e7e5E871d0d33624321c3893A89Ca07f4f02"
      ],
      "transaction": {
        "from": "0x7646e7e5e871d0d33624321c3893a89ca07f4f02",
        "to": "0xe4375a096fe20176b8fd9056c4aa699b092246ab",
        "gas": "0xa1d9",
        "value": "0x0",
        "input": "0x1e83409a0000000000000000000000007646e7e5e871d0d33624321c3893a89ca07f4f02",
        "nonce": "0x1b",
        "chainId": "0x88bb0"
      },
      "additionalContracts": [],
      "isFixedGasLimit": false
    },
    {
      "hash": "0x9621c093cc51c45c7836ae952a4067cc334b8c89fcd310e25a7b3d7c02511714",
      "transactionType": "CALL",
      "contractName": null,
      "contractAddress": "0xe4375a096fe20176b8fd9056c4aa699b092246ab",
      "function": "claim(address)",
      "arguments": [
        "0x7646e7e5E871d0d33624321c3893A89Ca07f4f02"
      ],
      "transaction": {
        "from": "0x7646e7e5e871d0d33624321c3893a89ca07f4f02",
        "to": "0xe4375a096fe20176b8fd9056c4aa699b092246ab",
        "gas": "0xa1d9",
        "value": "0x0",
        "input": "0x1e83409a0000000000000000000000007646e7e5e871d0d33624321c3893a89ca07f4f02",
        "nonce": "0x1c",
        "chainId": "0x88bb0"
      },
      "additionalContracts": [],
      "isFixedGasLimit": false
    },
    {
      "hash": "0xe46b299f0cd77cddac29c5d8cb277e5a48f84675a3f701faefbb800d4bae8f6a",
      "transactionType": "CALL",
      "contractName": null,
      "contractAddress": "0xe4375a096fe20176b8fd9056c4aa699b092246ab",
      "function": "claim(address)",
      "arguments": [
        "0x7646e7e5E871d0d33624321c3893A89Ca07f4f02"
      ],
      "transaction": {
        "from": "0x7646e7e5e871d0d33624321c3893a89ca07f4f02",
        "to": "0xe4375a096fe20176b8fd9056c4aa699b092246ab",
        "gas": "0xa1d9",
        "value": "0x0",
        "input": "0x1e83409a0000000000000000000000007646e7e5e871d0d33624321c3893a89ca07f4f02",
        "nonce": "0x1d",
        "chainId": "0x88bb0"
      },
      "additionalContracts": [],
      "isFixedGasLimit": false
    },
    {
      "hash": "0xb9c262d0c7bbc4df7fc23c34c521661c6cf26a81fc6ebaa4fade006d8a3eb32c",
      "transactionType": "CALL",
      "contractName": null,
      "contractAddress": "0xe4375a096fe20176b8fd9056c4aa699b092246ab",
      "function": "claim(address)",
      "arguments": [
        "0x7646e7e5E871d0d33624321c3893A89Ca07f4f02"
      ],
      "transaction": {
        "from": "0x7646e7e5e871d0d33624321c3893a89ca07f4f02",
        "to": "0xe4375a096fe20176b8fd9056c4aa699b092246ab",
        "gas": "0xa1d9",
        "value": "0x0",
        "input": "0x1e83409a0000000000000000000000007646e7e5e871d0d33624321c3893a89ca07f4f02",
        "nonce": "0x1e",
        "chainId": "0x88bb0"
      },
      "additionalContracts": [],
      "isFixedGasLimit": false
    },
    {
      "hash": "0x32cc90a600a8337cee213d931d9835b202b3ab337405a0928d51d3b15743775a",
      "transactionType": "CALL",
      "contractName": null,
      "contractAddress": "0xe4375a096fe20176b8fd9056c4aa699b092246ab",
      "function": "claim(address)",
      "arguments": [
        "0x7646e7e5E871d0d33624321c3893A89Ca07f4f02"
      ],
      "transaction": {
        "from": "0x7646e7e5e871d0d33624321c3893a89ca07f4f02",
        "to": "0xe4375a096fe20176b8fd9056c4aa699b092246ab",
        "gas": "0xa1d9",
        "value": "0x0",
        "input": "0x1e83409a0000000000000000000000007646e7e5e871d0d33624321c3893a89ca07f4f02",
        "nonce": "0x1f",
        "chainId": "0x88bb0"
      },
      "additionalContracts": [],
      "isFixedGasLimit": false
    },
    {
      "hash": "0x21375b950ca56dec3174d9673449f361b80c7c3c9d905e117bd207e8264b929f",
      "transactionType": "CALL",
      "contractName": null,
      "contractAddress": "0xe4375a096fe20176b8fd9056c4aa699b092246ab",
      "function": "claim(address)",
      "arguments": [
        "0x7646e7e5E871d0d33624321c3893A89Ca07f4f02"
      ],
      "transaction": {
        "from": "0x7646e7e5e871d0d33624321c3893a89ca07f4f02",
        "to": "0xe4375a096fe20176b8fd9056c4aa699b092246ab",
        "gas": "0xa1d9",
        "value": "0x0",
        "input": "0x1e83409a0000000000000000000000007646e7e5e871d0d33624321c3893a89ca07f4f02",
        "nonce": "0x20",
        "chainId": "0x88bb0"
      },
      "additionalContracts": [],
      "isFixedGasLimit": false
    },
    {
      "hash": "0x38d70ebcc854910b7b1e1f4cde20b326600517eecf3657d965d7a995b3e2ffd3",
      "transactionType": "CALL",
      "contractName": null,
      "contractAddress": "0xe4375a096fe20176b8fd9056c4aa699b092246ab",
      "function": "claim(address)",
      "arguments": [
        "0x7646e7e5E871d0d33624321c3893A89Ca07f4f02"
      ],
      "transaction": {
        "from": "0x7646e7e5e871d0d33624321c3893a89ca07f4f02",
        "to": "0xe4375a096fe20176b8fd9056c4aa699b092246ab",
        "gas": "0xa1d9",
        "value": "0x0",
        "input": "0x1e83409a0000000000000000000000007646e7e5e871d0d33624321c3893a89ca07f4f02",
        "nonce": "0x21",
        "chainId": "0x88bb0"
      },
      "additionalContracts": [],
      "isFixedGasLimit": false
    },
    {
      "hash": "0x74f8dee6cd45083c6fe406f4b424f8f4d030e599340ff781254a827d0db18da1",
      "transactionType": "CALL",
      "contractName": null,
      "contractAddress": "0xe4375a096fe20176b8fd9056c4aa699b092246ab",
      "function": "claim(address)",
      "arguments": [
        "0x7646e7e5E871d0d33624321c3893A89Ca07f4f02"
      ],
      "transaction": {
        "from": "0x7646e7e5e871d0d33624321c3893a89ca07f4f02",
        "to": "0xe4375a096fe20176b8fd9056c4aa699b092246ab",
        "gas": "0xa1d9",
        "value": "0x0",
        "input": "0x1e83409a0000000000000000000000007646e7e5e871d0d33624321c3893a89ca07f4f02",
        "nonce": "0x22",
        "chainId": "0x88bb0"
      },
      "additionalContracts": [],
      "isFixedGasLimit": false
    },
    {
      "hash": "0xda7f681570e1cfcf2313e1f9507c88c89c3147b0ca7009c2ddc5bfe7cf9fd004",
      "transactionType": "CALL",
      "contractName": null,
      "contractAddress": "0xe4375a096fe20176b8fd9056c4aa699b092246ab",
      "function": "claim(address)",
      "arguments": [
        "0x7646e7e5E871d0d33624321c3893A89Ca07f4f02"
      ],
      "transaction": {
        "from": "0x7646e7e5e871d0d33624321c3893a89ca07f4f02",
        "to": "0xe4375a096fe20176b8fd9056c4aa699b092246ab",
        "gas": "0xa1d9",
        "value": "0x0",
        "input": "0x1e83409a0000000000000000000000007646e7e5e871d0d33624321c3893a89ca07f4f02",
        "nonce": "0x23",
        "chainId": "0x88bb0"
      },
      "additionalContracts": [],
      "isFixedGasLimit": false
    },
    {
      "hash": "0x351ecbca50ba5073fb938d8df8314c8c0cb6b1a1d1cbe4cada0f770e176a152b",
      "transactionType": "CALL",
      "contractName": null,
      "contractAddress": "0xe4375a096fe20176b8fd9056c4aa699b092246ab",
      "function": "claim(address)",
      "arguments": [
        "0x7646e7e5E871d0d33624321c3893A89Ca07f4f02"
      ],
      "transaction": {
        "from": "0x7646e7e5e871d0d33624321c3893a89ca07f4f02",
        "to": "0xe4375a096fe20176b8fd9056c4aa699b092246ab",
        "gas": "0xa1d9",
        "value": "0x0",
        "input": "0x1e83409a0000000000000000000000007646e7e5e871d0d33624321c3893a89ca07f4f02",
        "nonce": "0x24",
        "chainId": "0x88bb0"
      },
      "additionalContracts": [],
      "isFixedGasLimit": false
    },
    {
      "hash": "0xbb29f1ca64b44d559ddca4ed518e774089448ad85968e2e1d4f8066c76f255d3",
      "transactionType": "CALL",
      "contractName": null,
      "contractAddress": "0xe4375a096fe20176b8fd9056c4aa699b092246ab",
      "function": "claim(address)",
      "arguments": [
        "0x7646e7e5E871d0d33624321c3893A89Ca07f4f02"
      ],
      "transaction": {
        "from": "0x7646e7e5e871d0d33624321c3893a89ca07f4f02",
        "to": "0xe4375a096fe20176b8fd9056c4aa699b092246ab",
        "gas": "0xa1d9",
        "value": "0x0",
        "input": "0x1e83409a0000000000000000000000007646e7e5e871d0d33624321c3893a89ca07f4f02",
        "nonce": "0x25",
        "chainId": "0x88bb0"
      },
      "additionalContracts": [],
      "isFixedGasLimit": false
    },
    {
      "hash": "0x40ef7dcd79093ce4ed1b7aec4e5d5ae1fd92a3f3211986937071c199375f227b",
      "transactionType": "CALL",
      "contractName": null,
      "contractAddress": "0xe4375a096fe20176b8fd9056c4aa699b092246ab",
      "function": "claim(address)",
      "arguments": [
        "0x7646e7e5E871d0d33624321c3893A89Ca07f4f02"
      ],
      "transaction": {
        "from": "0x7646e7e5e871d0d33624321c3893a89ca07f4f02",
        "to": "0xe4375a096fe20176b8fd9056c4aa699b092246ab",
        "gas": "0xa1d9",
        "value": "0x0",
        "input": "0x1e83409a0000000000000000000000007646e7e5e871d0d33624321c3893a89ca07f4f02",
        "nonce": "0x26",
        "chainId": "0x88bb0"
      },
      "additionalContracts": [],
      "isFixedGasLimit": false
    },
    {
      "hash": "0x66d42a556ac6f3a75ccde24a456d90d4d505f0b79eb4a2a68927ede241f761c5",
      "transactionType": "CALL",
      "contractName": null,
      "contractAddress": "0xe4375a096fe20176b8fd9056c4aa699b092246ab",
      "function": "claim(address)",
      "arguments": [
        "0x7646e7e5E871d0d33624321c3893A89Ca07f4f02"
      ],
      "transaction": {
        "from": "0x7646e7e5e871d0d33624321c3893a89ca07f4f02",
        "to": "0xe4375a096fe20176b8fd9056c4aa699b092246ab",
        "gas": "0xa1d9",
        "value": "0x0",
        "input": "0x1e83409a0000000000000000000000007646e7e5e871d0d33624321c3893a89ca07f4f02",
        "nonce": "0x27",
        "chainId": "0x88bb0"
      },
      "additionalContracts": [],
      "isFixedGasLimit": false
    },
    {
      "hash": "0x90091ef6dd5356e46c76bff9b05375c09dc2ae0a16f9ef56a28199b1e819d6e4",
      "transactionType": "CALL",
      "contractName": null,
      "contractAddress": "0xe4375a096fe20176b8fd9056c4aa699b092246ab",
      "function": "claim(address)",
      "arguments": [
        "0x7646e7e5E871d0d33624321c3893A89Ca07f4f02"
      ],
      "transaction": {
        "from": "0x7646e7e5e871d0d33624321c3893a89ca07f4f02",
        "to": "0xe4375a096fe20176b8fd9056c4aa699b092246ab",
        "gas": "0xa1d9",
        "value": "0x0",
        "input": "0x1e83409a0000000000000000000000007646e7e5e871d0d33624321c3893a89ca07f4f02",
        "nonce": "0x28",
        "chainId": "0x88bb0"
      },
      "additionalContracts": [],
      "isFixedGasLimit": false
    },
    {
      "hash": "0xfe23b612fcd1c73ee9381d43954301a5217695fa37d7d2d8ec15f6535ec79719",
      "transactionType": "CALL",
      "contractName": null,
      "contractAddress": "0xe4375a096fe20176b8fd9056c4aa699b092246ab",
      "function": "claim(address)",
      "arguments": [
        "0x7646e7e5E871d0d33624321c3893A89Ca07f4f02"
      ],
      "transaction": {
        "from": "0x7646e7e5e871d0d33624321c3893a89ca07f4f02",
        "to": "0xe4375a096fe20176b8fd9056c4aa699b092246ab",
        "gas": "0xa1d9",
        "value": "0x0",
        "input": "0x1e83409a0000000000000000000000007646e7e5e871d0d33624321c3893a89ca07f4f02",
        "nonce": "0x29",
        "chainId": "0x88bb0"
      },
      "additionalContracts": [],
      "isFixedGasLimit": false
    },
    {
      "hash": "0x6b4395b560a548f6bd34ae0e218613035df6ff24261f6399d4ff1429dbe99823",
      "transactionType": "CALL",
      "contractName": null,
      "contractAddress": "0xe4375a096fe20176b8fd9056c4aa699b092246ab",
      "function": "claim(address)",
      "arguments": [
        "0x7646e7e5E871d0d33624321c3893A89Ca07f4f02"
      ],
      "transaction": {
        "from": "0x7646e7e5e871d0d33624321c3893a89ca07f4f02",
        "to": "0xe4375a096fe20176b8fd9056c4aa699b092246ab",
        "gas": "0xa1d9",
        "value": "0x0",
        "input": "0x1e83409a0000000000000000000000007646e7e5e871d0d33624321c3893a89ca07f4f02",
        "nonce": "0x2a",
        "chainId": "0x88bb0"
      },
      "additionalContracts": [],
      "isFixedGasLimit": false
    },
    {
      "hash": "0x81d1bd89dc02750c3fcf4a17b71caceddfa8c0e31286d45905f2031d36290a91",
      "transactionType": "CALL",
      "contractName": null,
      "contractAddress": "0xe4375a096fe20176b8fd9056c4aa699b092246ab",
      "function": "claim(address)",
      "arguments": [
        "0x7646e7e5E871d0d33624321c3893A89Ca07f4f02"
      ],
      "transaction": {
        "from": "0x7646e7e5e871d0d33624321c3893a89ca07f4f02",
        "to": "0xe4375a096fe20176b8fd9056c4aa699b092246ab",
        "gas": "0xa1d9",
        "value": "0x0",
        "input": "0x1e83409a0000000000000000000000007646e7e5e871d0d33624321c3893a89ca07f4f02",
        "nonce": "0x2b",
        "chainId": "0x88bb0"
      },
      "additionalContracts": [],
      "isFixedGasLimit": false
    },
    {
      "hash": "0x2b0fd079113cdc497f127b1fed8f54ef380c0d0bb9c6e852d7ea3c5ababda6e3",
      "transactionType": "CALL",
      "contractName": null,
      "contractAddress": "0xe4375a096fe20176b8fd9056c4aa699b092246ab",
      "function": "claim(address)",
      "arguments": [
        "0x7646e7e5E871d0d33624321c3893A89Ca07f4f02"
      ],
      "transaction": {
        "from": "0x7646e7e5e871d0d33624321c3893a89ca07f4f02",
        "to": "0xe4375a096fe20176b8fd9056c4aa699b092246ab",
        "gas": "0xa1d9",
        "value": "0x0",
        "input": "0x1e83409a0000000000000000000000007646e7e5e871d0d33624321c3893a89ca07f4f02",
        "nonce": "0x2c",
        "chainId": "0x88bb0"
      },
      "additionalContracts": [],
      "isFixedGasLimit": false
    },
    {
      "hash": "0x6b32138d2e2861b2c5e73f3d4583ec84deb1484df9afd77a999fada5e82ad4a2",
      "transactionType": "CALL",
      "contractName": null,
      "contractAddress": "0xe4375a096fe20176b8fd9056c4aa699b092246ab",
      "function": "claim(address)",
      "arguments": [
        "0x7646e7e5E871d0d33624321c3893A89Ca07f4f02"
      ],
      "transaction": {
        "from": "0x7646e7e5e871d0d33624321c3893a89ca07f4f02",
        "to": "0xe4375a096fe20176b8fd9056c4aa699b092246ab",
        "gas": "0xa1d9",
        "value": "0x0",
        "input": "0x1e83409a0000000000000000000000007646e7e5e871d0d33624321c3893a89ca07f4f02",
        "nonce": "0x2d",
        "chainId": "0x88bb0"
      },
      "additionalContracts": [],
      "isFixedGasLimit": false
    },
    {
      "hash": "0x952dfbb43241f31c6ea9c1a0358ba193b8896f9b2b16083d5da74640ba3cfb5a",
      "transactionType": "CALL",
      "contractName": null,
      "contractAddress": "0xe4375a096fe20176b8fd9056c4aa699b092246ab",
      "function": "claim(address)",
      "arguments": [
        "0x7646e7e5E871d0d33624321c3893A89Ca07f4f02"
      ],
      "transaction": {
        "from": "0x7646e7e5e871d0d33624321c3893a89ca07f4f02",
        "to": "0xe4375a096fe20176b8fd9056c4aa699b092246ab",
        "gas": "0xa1d9",
        "value": "0x0",
        "input": "0x1e83409a0000000000000000000000007646e7e5e871d0d33624321c3893a89ca07f4f02",
        "nonce": "0x2e",
        "chainId": "0x88bb0"
      },
      "additionalContracts": [],
      "isFixedGasLimit": false
    },
    {
      "hash": "0x89e6404645cfd32bf917f3b2eb10b4ba402d285f90373bf2103ab8d6a7549b9d",
      "transactionType": "CALL",
      "contractName": null,
      "contractAddress": "0xe4375a096fe20176b8fd9056c4aa699b092246ab",
      "function": "claim(address)",
      "arguments": [
        "0x7646e7e5E871d0d33624321c3893A89Ca07f4f02"
      ],
      "transaction": {
        "from": "0x7646e7e5e871d0d33624321c3893a89ca07f4f02",
        "to": "0xe4375a096fe20176b8fd9056c4aa699b092246ab",
        "gas": "0xa1d9",
        "value": "0x0",
        "input": "0x1e83409a0000000000000000000000007646e7e5e871d0d33624321c3893a89ca07f4f02",
        "nonce": "0x2f",
        "chainId": "0x88bb0"
      },
      "additionalContracts": [],
      "isFixedGasLimit": false
    },
    {
      "hash": "0x5457e46670b8be7d76569bbd79be216c9b83eb105fe05caad080aaae4437b554",
      "transactionType": "CALL",
      "contractName": null,
      "contractAddress": "0xe4375a096fe20176b8fd9056c4aa699b092246ab",
      "function": "claim(address)",
      "arguments": [
        "0x7646e7e5E871d0d33624321c3893A89Ca07f4f02"
      ],
      "transaction": {
        "from": "0x7646e7e5e871d0d33624321c3893a89ca07f4f02",
        "to": "0xe4375a096fe20176b8fd9056c4aa699b092246ab",
        "gas": "0xa1d9",
        "value": "0x0",
        "input": "0x1e83409a0000000000000000000000007646e7e5e871d0d33624321c3893a89ca07f4f02",
        "nonce": "0x30",
        "chainId": "0x88bb0"
      },
      "additionalContracts": [],
      "isFixedGasLimit": false
    },
    {
      "hash": "0x0b93ce62ec0826268b54fb0d67dade111907a2ba9f67f02d03456102b8e2ae35",
      "transactionType": "CALL",
      "contractName": null,
      "contractAddress": "0xe4375a096fe20176b8fd9056c4aa699b092246ab",
      "function": "claim(address)",
      "arguments": [
        "0x7646e7e5E871d0d33624321c3893A89Ca07f4f02"
      ],
      "transaction": {
        "from": "0x7646e7e5e871d0d33624321c3893a89ca07f4f02",
        "to": "0xe4375a096fe20176b8fd9056c4aa699b092246ab",
        "gas": "0xa1d9",
        "value": "0x0",
        "input": "0x1e83409a0000000000000000000000007646e7e5e871d0d33624321c3893a89ca07f4f02",
        "nonce": "0x31",
        "chainId": "0x88bb0"
      },
      "additionalContracts": [],
      "isFixedGasLimit": false
    },
    {
      "hash": "0xcd0d7cdb37c85a2b15b108fcf33907713955dbe8175f5db3d1ebb85deb807ad9",
      "transactionType": "CALL",
      "contractName": null,
      "contractAddress": "0xe4375a096fe20176b8fd9056c4aa699b092246ab",
      "function": "claim(address)",
      "arguments": [
        "0x7646e7e5E871d0d33624321c3893A89Ca07f4f02"
      ],
      "transaction": {
        "from": "0x7646e7e5e871d0d33624321c3893a89ca07f4f02",
        "to": "0xe4375a096fe20176b8fd9056c4aa699b092246ab",
        "gas": "0xa1d9",
        "value": "0x0",
        "input": "0x1e83409a0000000000000000000000007646e7e5e871d0d33624321c3893a89ca07f4f02",
        "nonce": "0x32",
        "chainId": "0x88bb0"
      },
      "additionalContracts": [],
      "isFixedGasLimit": false
    },
    {
      "hash": "0xd4801ace56aaf3775548a6c09b88ef164da54251f68b175bbd039c8c8c3c057b",
      "transactionType": "CALL",
      "contractName": null,
      "contractAddress": "0xe4375a096fe20176b8fd9056c4aa699b092246ab",
      "function": "claim(address)",
      "arguments": [
        "0x7646e7e5E871d0d33624321c3893A89Ca07f4f02"
      ],
      "transaction": {
        "from": "0x7646e7e5e871d0d33624321c3893a89ca07f4f02",
        "to": "0xe4375a096fe20176b8fd9056c4aa699b092246ab",
        "gas": "0xa1d9",
        "value": "0x0",
        "input": "0x1e83409a0000000000000000000000007646e7e5e871d0d33624321c3893a89ca07f4f02",
        "nonce": "0x33",
        "chainId": "0x88bb0"
      },
      "additionalContracts": [],
      "isFixedGasLimit": false
    },
    {
      "hash": "0x1f723fc91a9436ed3aa15351c6da2a44f6a199e98d72974effa6dc9db1372740",
      "transactionType": "CALL",
      "contractName": null,
      "contractAddress": "0xe4375a096fe20176b8fd9056c4aa699b092246ab",
      "function": "claim(address)",
      "arguments": [
        "0x7646e7e5E871d0d33624321c3893A89Ca07f4f02"
      ],
      "transaction": {
        "from": "0x7646e7e5e871d0d33624321c3893a89ca07f4f02",
        "to": "0xe4375a096fe20176b8fd9056c4aa699b092246ab",
        "gas": "0xa1d9",
        "value": "0x0",
        "input": "0x1e83409a0000000000000000000000007646e7e5e871d0d33624321c3893a89ca07f4f02",
        "nonce": "0x34",
        "chainId": "0x88bb0"
      },
      "additionalContracts": [],
      "isFixedGasLimit": false
    },
    {
      "hash": "0xcdc8481232c80842f8bcbd519df54c1d637323bc07c3e73d86710b78e1bbb118",
      "transactionType": "CALL",
      "contractName": null,
      "contractAddress": "0xe4375a096fe20176b8fd9056c4aa699b092246ab",
      "function": "claim(address)",
      "arguments": [
        "0x7646e7e5E871d0d33624321c3893A89Ca07f4f02"
      ],
      "transaction": {
        "from": "0x7646e7e5e871d0d33624321c3893a89ca07f4f02",
        "to": "0xe4375a096fe20176b8fd9056c4aa699b092246ab",
        "gas": "0xa1d9",
        "value": "0x0",
        "input": "0x1e83409a0000000000000000000000007646e7e5e871d0d33624321c3893a89ca07f4f02",
        "nonce": "0x35",
        "chainId": "0x88bb0"
      },
      "additionalContracts": [],
      "isFixedGasLimit": false
    },
    {
      "hash": "0x2a6a2b2adf01dfa12d77bab1786c2ea5cf76f84649a53c91b73aac0736342e79",
      "transactionType": "CALL",
      "contractName": null,
      "contractAddress": "0xe4375a096fe20176b8fd9056c4aa699b092246ab",
      "function": "claim(address)",
      "arguments": [
        "0x7646e7e5E871d0d33624321c3893A89Ca07f4f02"
      ],
      "transaction": {
        "from": "0x7646e7e5e871d0d33624321c3893a89ca07f4f02",
        "to": "0xe4375a096fe20176b8fd9056c4aa699b092246ab",
        "gas": "0xa1d9",
        "value": "0x0",
        "input": "0x1e83409a0000000000000000000000007646e7e5e871d0d33624321c3893a89ca07f4f02",
        "nonce": "0x36",
        "chainId": "0x88bb0"
      },
      "additionalContracts": [],
      "isFixedGasLimit": false
    },
    {
      "hash": "0x3099db749117c218d5e9123e297124f592c8f6dc94a212416998e8c6aa0bfecf",
      "transactionType": "CALL",
      "contractName": null,
      "contractAddress": "0xe4375a096fe20176b8fd9056c4aa699b092246ab",
      "function": "claim(address)",
      "arguments": [
        "0x7646e7e5E871d0d33624321c3893A89Ca07f4f02"
      ],
      "transaction": {
        "from": "0x7646e7e5e871d0d33624321c3893a89ca07f4f02",
        "to": "0xe4375a096fe20176b8fd9056c4aa699b092246ab",
        "gas": "0xa1d9",
        "value": "0x0",
        "input": "0x1e83409a0000000000000000000000007646e7e5e871d0d33624321c3893a89ca07f4f02",
        "nonce": "0x37",
        "chainId": "0x88bb0"
      },
      "additionalContracts": [],
      "isFixedGasLimit": false
    },
    {
      "hash": "0xc9ef26373d7bff3347b240ef446ccc99521c4c57d914d9e74eefd90ebe4168db",
      "transactionType": "CALL",
      "contractName": null,
      "contractAddress": "0xe4375a096fe20176b8fd9056c4aa699b092246ab",
      "function": "claim(address)",
      "arguments": [
        "0x7646e7e5E871d0d33624321c3893A89Ca07f4f02"
      ],
      "transaction": {
        "from": "0x7646e7e5e871d0d33624321c3893a89ca07f4f02",
        "to": "0xe4375a096fe20176b8fd9056c4aa699b092246ab",
        "gas": "0xa1d9",
        "value": "0x0",
        "input": "0x1e83409a0000000000000000000000007646e7e5e871d0d33624321c3893a89ca07f4f02",
        "nonce": "0x38",
        "chainId": "0x88bb0"
      },
      "additionalContracts": [],
      "isFixedGasLimit": false
    },
    {
      "hash": "0xf5ab34f7d11ef330be6c09004fdba7206ba69bd9c96cfb02ae29bf3755a99584",
      "transactionType": "CALL",
      "contractName": null,
      "contractAddress": "0xe4375a096fe20176b8fd9056c4aa699b092246ab",
      "function": "claim(address)",
      "arguments": [
        "0x7646e7e5E871d0d33624321c3893A89Ca07f4f02"
      ],
      "transaction": {
        "from": "0x7646e7e5e871d0d33624321c3893a89ca07f4f02",
        "to": "0xe4375a096fe20176b8fd9056c4aa699b092246ab",
        "gas": "0xa1d9",
        "value": "0x0",
        "input": "0x1e83409a0000000000000000000000007646e7e5e871d0d33624321c3893a89ca07f4f02",
        "nonce": "0x39",
        "chainId": "0x88bb0"
      },
      "additionalContracts": [],
      "isFixedGasLimit": false
    },
    {
      "hash": "0xdbf544266c113b0cbfa017feafe80d71cd7be9fb1ef4e8377cd9937506a84077",
      "transactionType": "CALL",
      "contractName": null,
      "contractAddress": "0xe4375a096fe20176b8fd9056c4aa699b092246ab",
      "function": "claim(address)",
      "arguments": [
        "0x7646e7e5E871d0d33624321c3893A89Ca07f4f02"
      ],
      "transaction": {
        "from": "0x7646e7e5e871d0d33624321c3893a89ca07f4f02",
        "to": "0xe4375a096fe20176b8fd9056c4aa699b092246ab",
        "gas": "0xa1d9",
        "value": "0x0",
        "input": "0x1e83409a0000000000000000000000007646e7e5e871d0d33624321c3893a89ca07f4f02",
        "nonce": "0x3a",
        "chainId": "0x88bb0"
      },
      "additionalContracts": [],
      "isFixedGasLimit": false
    },
    {
      "hash": "0x557fbc0e589ae8797aed8709e101f9035da6dcc1ba4dcd5d77490c27b29c65b5",
      "transactionType": "CALL",
      "contractName": null,
      "contractAddress": "0xe4375a096fe20176b8fd9056c4aa699b092246ab",
      "function": "claim(address)",
      "arguments": [
        "0x7646e7e5E871d0d33624321c3893A89Ca07f4f02"
      ],
      "transaction": {
        "from": "0x7646e7e5e871d0d33624321c3893a89ca07f4f02",
        "to": "0xe4375a096fe20176b8fd9056c4aa699b092246ab",
        "gas": "0xa1d9",
        "value": "0x0",
        "input": "0x1e83409a0000000000000000000000007646e7e5e871d0d33624321c3893a89ca07f4f02",
        "nonce": "0x3b",
        "chainId": "0x88bb0"
      },
      "additionalContracts": [],
      "isFixedGasLimit": false
    }
  ],
  "receipts": [
    {
      "status": "0x1",
      "cumulativeGasUsed": "0x236c27",
      "logs": [
        {
          "address": "0xe4375a096fe20176b8fd9056c4aa699b092246ab",
          "topics": [
            "0xb449c24d261a59627b537c8c41c57ab559f4205c56bea745ff61c5521bece214"
          ],
          "data": "0x0000000000000000000000007646e7e5e871d0d33624321c3893a89ca07f4f02",
          "blockHash": "0xf9850fc3da541781a50d723b5c6673e2194815ed0c9fe36d9b6886c233f2c667",
          "blockNumber": "0x13a10f",
          "blockTimestamp": "0x68d54e34",
          "transactionHash": "0xf4292abced869a1a369cc30124fc4f17d8c1fce16f63ca67ef44e639e7b4f190",
          "transactionIndex": "0x2",
          "logIndex": "0xe",
          "removed": false
        }
      ],
      "logsBloom": "0x00000020000800000000000000000000000000000000000000000000000000000000000000000000000000000000000000000000000000000000000000000000000000000000000000000000000020000000000000000000000000000000400000000000000000000000000000100000000000000000000000000000000000000000000000000000000000000000000000000000000000000000000000000000000000000000000000000000000000000000000000000000000000000008000000000000000000000000000000000000000000000000000000000000000000000000000000000000000000000000000000000000000000000000000000000000",
      "type": "0x2",
      "transactionHash": "0xf4292abced869a1a369cc30124fc4f17d8c1fce16f63ca67ef44e639e7b4f190",
      "transactionIndex": "0x2",
      "blockHash": "0xf9850fc3da541781a50d723b5c6673e2194815ed0c9fe36d9b6886c233f2c667",
      "blockNumber": "0x13a10f",
      "gasUsed": "0x752e",
      "effectiveGasPrice": "0x406e7dd4",
      "from": "0x7646e7e5e871d0d33624321c3893a89ca07f4f02",
      "to": "0xe4375a096fe20176b8fd9056c4aa699b092246ab",
      "contractAddress": null
    },
    {
      "status": "0x1",
      "cumulativeGasUsed": "0x23e155",
      "logs": [
        {
          "address": "0xe4375a096fe20176b8fd9056c4aa699b092246ab",
          "topics": [
            "0xb449c24d261a59627b537c8c41c57ab559f4205c56bea745ff61c5521bece214"
          ],
          "data": "0x0000000000000000000000007646e7e5e871d0d33624321c3893a89ca07f4f02",
          "blockHash": "0xf9850fc3da541781a50d723b5c6673e2194815ed0c9fe36d9b6886c233f2c667",
          "blockNumber": "0x13a10f",
          "blockTimestamp": "0x68d54e34",
          "transactionHash": "0xf7ec1618a11869e5e037dba91476b362ff2579264ad7b59e5069284421f64a0f",
          "transactionIndex": "0x3",
          "logIndex": "0xf",
          "removed": false
        }
      ],
      "logsBloom": "0x00000020000800000000000000000000000000000000000000000000000000000000000000000000000000000000000000000000000000000000000000000000000000000000000000000000000020000000000000000000000000000000400000000000000000000000000000100000000000000000000000000000000000000000000000000000000000000000000000000000000000000000000000000000000000000000000000000000000000000000000000000000000000000008000000000000000000000000000000000000000000000000000000000000000000000000000000000000000000000000000000000000000000000000000000000000",
      "type": "0x2",
      "transactionHash": "0xf7ec1618a11869e5e037dba91476b362ff2579264ad7b59e5069284421f64a0f",
      "transactionIndex": "0x3",
      "blockHash": "0xf9850fc3da541781a50d723b5c6673e2194815ed0c9fe36d9b6886c233f2c667",
      "blockNumber": "0x13a10f",
      "gasUsed": "0x752e",
      "effectiveGasPrice": "0x406e7dd4",
      "from": "0x7646e7e5e871d0d33624321c3893a89ca07f4f02",
      "to": "0xe4375a096fe20176b8fd9056c4aa699b092246ab",
      "contractAddress": null
    },
    {
      "status": "0x1",
      "cumulativeGasUsed": "0x245683",
      "logs": [
        {
          "address": "0xe4375a096fe20176b8fd9056c4aa699b092246ab",
          "topics": [
            "0xb449c24d261a59627b537c8c41c57ab559f4205c56bea745ff61c5521bece214"
          ],
          "data": "0x0000000000000000000000007646e7e5e871d0d33624321c3893a89ca07f4f02",
          "blockHash": "0xf9850fc3da541781a50d723b5c6673e2194815ed0c9fe36d9b6886c233f2c667",
          "blockNumber": "0x13a10f",
          "blockTimestamp": "0x68d54e34",
          "transactionHash": "0xe570d723b5e1934a7a34ad7f27db48fd4cbb8be0a0d782e52e953a5432eeccfe",
          "transactionIndex": "0x4",
          "logIndex": "0x10",
          "removed": false
        }
      ],
      "logsBloom": "0x00000020000800000000000000000000000000000000000000000000000000000000000000000000000000000000000000000000000000000000000000000000000000000000000000000000000020000000000000000000000000000000400000000000000000000000000000100000000000000000000000000000000000000000000000000000000000000000000000000000000000000000000000000000000000000000000000000000000000000000000000000000000000000008000000000000000000000000000000000000000000000000000000000000000000000000000000000000000000000000000000000000000000000000000000000000",
      "type": "0x2",
      "transactionHash": "0xe570d723b5e1934a7a34ad7f27db48fd4cbb8be0a0d782e52e953a5432eeccfe",
      "transactionIndex": "0x4",
      "blockHash": "0xf9850fc3da541781a50d723b5c6673e2194815ed0c9fe36d9b6886c233f2c667",
      "blockNumber": "0x13a10f",
      "gasUsed": "0x752e",
      "effectiveGasPrice": "0x406e7dd4",
      "from": "0x7646e7e5e871d0d33624321c3893a89ca07f4f02",
      "to": "0xe4375a096fe20176b8fd9056c4aa699b092246ab",
      "contractAddress": null
    },
    {
      "status": "0x1",
      "cumulativeGasUsed": "0x24cbb1",
      "logs": [
        {
          "address": "0xe4375a096fe20176b8fd9056c4aa699b092246ab",
          "topics": [
            "0xb449c24d261a59627b537c8c41c57ab559f4205c56bea745ff61c5521bece214"
          ],
          "data": "0x0000000000000000000000007646e7e5e871d0d33624321c3893a89ca07f4f02",
          "blockHash": "0xf9850fc3da541781a50d723b5c6673e2194815ed0c9fe36d9b6886c233f2c667",
          "blockNumber": "0x13a10f",
          "blockTimestamp": "0x68d54e34",
          "transactionHash": "0xdade0abf8fb1061998876a9bcf9ca741648fe02b526cd16bf62d1fe1968c9a49",
          "transactionIndex": "0x5",
          "logIndex": "0x11",
          "removed": false
        }
      ],
      "logsBloom": "0x00000020000800000000000000000000000000000000000000000000000000000000000000000000000000000000000000000000000000000000000000000000000000000000000000000000000020000000000000000000000000000000400000000000000000000000000000100000000000000000000000000000000000000000000000000000000000000000000000000000000000000000000000000000000000000000000000000000000000000000000000000000000000000008000000000000000000000000000000000000000000000000000000000000000000000000000000000000000000000000000000000000000000000000000000000000",
      "type": "0x2",
      "transactionHash": "0xdade0abf8fb1061998876a9bcf9ca741648fe02b526cd16bf62d1fe1968c9a49",
      "transactionIndex": "0x5",
      "blockHash": "0xf9850fc3da541781a50d723b5c6673e2194815ed0c9fe36d9b6886c233f2c667",
      "blockNumber": "0x13a10f",
      "gasUsed": "0x752e",
      "effectiveGasPrice": "0x406e7dd4",
      "from": "0x7646e7e5e871d0d33624321c3893a89ca07f4f02",
      "to": "0xe4375a096fe20176b8fd9056c4aa699b092246ab",
      "contractAddress": null
    },
    {
      "status": "0x1",
      "cumulativeGasUsed": "0x2540df",
      "logs": [
        {
          "address": "0xe4375a096fe20176b8fd9056c4aa699b092246ab",
          "topics": [
            "0xb449c24d261a59627b537c8c41c57ab559f4205c56bea745ff61c5521bece214"
          ],
          "data": "0x0000000000000000000000007646e7e5e871d0d33624321c3893a89ca07f4f02",
          "blockHash": "0xf9850fc3da541781a50d723b5c6673e2194815ed0c9fe36d9b6886c233f2c667",
          "blockNumber": "0x13a10f",
          "blockTimestamp": "0x68d54e34",
          "transactionHash": "0x01610901a95de99d512c31a2da6524d2800407270f4634d4667b39a9a220f10c",
          "transactionIndex": "0x6",
          "logIndex": "0x12",
          "removed": false
        }
      ],
      "logsBloom": "0x00000020000800000000000000000000000000000000000000000000000000000000000000000000000000000000000000000000000000000000000000000000000000000000000000000000000020000000000000000000000000000000400000000000000000000000000000100000000000000000000000000000000000000000000000000000000000000000000000000000000000000000000000000000000000000000000000000000000000000000000000000000000000000008000000000000000000000000000000000000000000000000000000000000000000000000000000000000000000000000000000000000000000000000000000000000",
      "type": "0x2",
      "transactionHash": "0x01610901a95de99d512c31a2da6524d2800407270f4634d4667b39a9a220f10c",
      "transactionIndex": "0x6",
      "blockHash": "0xf9850fc3da541781a50d723b5c6673e2194815ed0c9fe36d9b6886c233f2c667",
      "blockNumber": "0x13a10f",
      "gasUsed": "0x752e",
      "effectiveGasPrice": "0x406e7dd4",
      "from": "0x7646e7e5e871d0d33624321c3893a89ca07f4f02",
      "to": "0xe4375a096fe20176b8fd9056c4aa699b092246ab",
      "contractAddress": null
    },
    {
      "status": "0x1",
      "cumulativeGasUsed": "0x25b60d",
      "logs": [
        {
          "address": "0xe4375a096fe20176b8fd9056c4aa699b092246ab",
          "topics": [
            "0xb449c24d261a59627b537c8c41c57ab559f4205c56bea745ff61c5521bece214"
          ],
          "data": "0x0000000000000000000000007646e7e5e871d0d33624321c3893a89ca07f4f02",
          "blockHash": "0xf9850fc3da541781a50d723b5c6673e2194815ed0c9fe36d9b6886c233f2c667",
          "blockNumber": "0x13a10f",
          "blockTimestamp": "0x68d54e34",
          "transactionHash": "0xff48d19792b3c954904fb4631d68e9bb0e1353d1e88179b384e8fb538b1cde6e",
          "transactionIndex": "0x7",
          "logIndex": "0x13",
          "removed": false
        }
      ],
      "logsBloom": "0x00000020000800000000000000000000000000000000000000000000000000000000000000000000000000000000000000000000000000000000000000000000000000000000000000000000000020000000000000000000000000000000400000000000000000000000000000100000000000000000000000000000000000000000000000000000000000000000000000000000000000000000000000000000000000000000000000000000000000000000000000000000000000000008000000000000000000000000000000000000000000000000000000000000000000000000000000000000000000000000000000000000000000000000000000000000",
      "type": "0x2",
      "transactionHash": "0xff48d19792b3c954904fb4631d68e9bb0e1353d1e88179b384e8fb538b1cde6e",
      "transactionIndex": "0x7",
      "blockHash": "0xf9850fc3da541781a50d723b5c6673e2194815ed0c9fe36d9b6886c233f2c667",
      "blockNumber": "0x13a10f",
      "gasUsed": "0x752e",
      "effectiveGasPrice": "0x406e7dd4",
      "from": "0x7646e7e5e871d0d33624321c3893a89ca07f4f02",
      "to": "0xe4375a096fe20176b8fd9056c4aa699b092246ab",
      "contractAddress": null
    },
    {
      "status": "0x1",
      "cumulativeGasUsed": "0x262b3b",
      "logs": [
        {
          "address": "0xe4375a096fe20176b8fd9056c4aa699b092246ab",
          "topics": [
            "0xb449c24d261a59627b537c8c41c57ab559f4205c56bea745ff61c5521bece214"
          ],
          "data": "0x0000000000000000000000007646e7e5e871d0d33624321c3893a89ca07f4f02",
          "blockHash": "0xf9850fc3da541781a50d723b5c6673e2194815ed0c9fe36d9b6886c233f2c667",
          "blockNumber": "0x13a10f",
          "blockTimestamp": "0x68d54e34",
          "transactionHash": "0xa1bb5cf9912ca270a304a0eae5290171b0cec1c7332fbf43da902baaa0606ec8",
          "transactionIndex": "0x8",
          "logIndex": "0x14",
          "removed": false
        }
      ],
      "logsBloom": "0x00000020000800000000000000000000000000000000000000000000000000000000000000000000000000000000000000000000000000000000000000000000000000000000000000000000000020000000000000000000000000000000400000000000000000000000000000100000000000000000000000000000000000000000000000000000000000000000000000000000000000000000000000000000000000000000000000000000000000000000000000000000000000000008000000000000000000000000000000000000000000000000000000000000000000000000000000000000000000000000000000000000000000000000000000000000",
      "type": "0x2",
      "transactionHash": "0xa1bb5cf9912ca270a304a0eae5290171b0cec1c7332fbf43da902baaa0606ec8",
      "transactionIndex": "0x8",
      "blockHash": "0xf9850fc3da541781a50d723b5c6673e2194815ed0c9fe36d9b6886c233f2c667",
      "blockNumber": "0x13a10f",
      "gasUsed": "0x752e",
      "effectiveGasPrice": "0x406e7dd4",
      "from": "0x7646e7e5e871d0d33624321c3893a89ca07f4f02",
      "to": "0xe4375a096fe20176b8fd9056c4aa699b092246ab",
      "contractAddress": null
    },
    {
      "status": "0x1",
      "cumulativeGasUsed": "0x26a069",
      "logs": [
        {
          "address": "0xe4375a096fe20176b8fd9056c4aa699b092246ab",
          "topics": [
            "0xb449c24d261a59627b537c8c41c57ab559f4205c56bea745ff61c5521bece214"
          ],
          "data": "0x0000000000000000000000007646e7e5e871d0d33624321c3893a89ca07f4f02",
          "blockHash": "0xf9850fc3da541781a50d723b5c6673e2194815ed0c9fe36d9b6886c233f2c667",
          "blockNumber": "0x13a10f",
          "blockTimestamp": "0x68d54e34",
          "transactionHash": "0xd0d479c6264e724054fd26d143ee089e43ffcd64f2d183f4cbbcc6d1da470fa5",
          "transactionIndex": "0x9",
          "logIndex": "0x15",
          "removed": false
        }
      ],
      "logsBloom": "0x00000020000800000000000000000000000000000000000000000000000000000000000000000000000000000000000000000000000000000000000000000000000000000000000000000000000020000000000000000000000000000000400000000000000000000000000000100000000000000000000000000000000000000000000000000000000000000000000000000000000000000000000000000000000000000000000000000000000000000000000000000000000000000008000000000000000000000000000000000000000000000000000000000000000000000000000000000000000000000000000000000000000000000000000000000000",
      "type": "0x2",
      "transactionHash": "0xd0d479c6264e724054fd26d143ee089e43ffcd64f2d183f4cbbcc6d1da470fa5",
      "transactionIndex": "0x9",
      "blockHash": "0xf9850fc3da541781a50d723b5c6673e2194815ed0c9fe36d9b6886c233f2c667",
      "blockNumber": "0x13a10f",
      "gasUsed": "0x752e",
      "effectiveGasPrice": "0x406e7dd4",
      "from": "0x7646e7e5e871d0d33624321c3893a89ca07f4f02",
      "to": "0xe4375a096fe20176b8fd9056c4aa699b092246ab",
      "contractAddress": null
    },
    {
      "status": "0x1",
      "cumulativeGasUsed": "0x271597",
      "logs": [
        {
          "address": "0xe4375a096fe20176b8fd9056c4aa699b092246ab",
          "topics": [
            "0xb449c24d261a59627b537c8c41c57ab559f4205c56bea745ff61c5521bece214"
          ],
          "data": "0x0000000000000000000000007646e7e5e871d0d33624321c3893a89ca07f4f02",
          "blockHash": "0xf9850fc3da541781a50d723b5c6673e2194815ed0c9fe36d9b6886c233f2c667",
          "blockNumber": "0x13a10f",
          "blockTimestamp": "0x68d54e34",
          "transactionHash": "0xe37ff2e543f44e36c493040912575ad4744dc253f77a53eb252af03d9393c19b",
          "transactionIndex": "0xa",
          "logIndex": "0x16",
          "removed": false
        }
      ],
      "logsBloom": "0x00000020000800000000000000000000000000000000000000000000000000000000000000000000000000000000000000000000000000000000000000000000000000000000000000000000000020000000000000000000000000000000400000000000000000000000000000100000000000000000000000000000000000000000000000000000000000000000000000000000000000000000000000000000000000000000000000000000000000000000000000000000000000000008000000000000000000000000000000000000000000000000000000000000000000000000000000000000000000000000000000000000000000000000000000000000",
      "type": "0x2",
      "transactionHash": "0xe37ff2e543f44e36c493040912575ad4744dc253f77a53eb252af03d9393c19b",
      "transactionIndex": "0xa",
      "blockHash": "0xf9850fc3da541781a50d723b5c6673e2194815ed0c9fe36d9b6886c233f2c667",
      "blockNumber": "0x13a10f",
      "gasUsed": "0x752e",
      "effectiveGasPrice": "0x406e7dd4",
      "from": "0x7646e7e5e871d0d33624321c3893a89ca07f4f02",
      "to": "0xe4375a096fe20176b8fd9056c4aa699b092246ab",
      "contractAddress": null
    },
    {
      "status": "0x1",
      "cumulativeGasUsed": "0x278ac5",
      "logs": [
        {
          "address": "0xe4375a096fe20176b8fd9056c4aa699b092246ab",
          "topics": [
            "0xb449c24d261a59627b537c8c41c57ab559f4205c56bea745ff61c5521bece214"
          ],
          "data": "0x0000000000000000000000007646e7e5e871d0d33624321c3893a89ca07f4f02",
          "blockHash": "0xf9850fc3da541781a50d723b5c6673e2194815ed0c9fe36d9b6886c233f2c667",
          "blockNumber": "0x13a10f",
          "blockTimestamp": "0x68d54e34",
          "transactionHash": "0xb1ff8561f5ef91a8fce198c1a99879c9204bb23709af4e3abf2226f49f0ebffe",
          "transactionIndex": "0xb",
          "logIndex": "0x17",
          "removed": false
        }
      ],
      "logsBloom": "0x00000020000800000000000000000000000000000000000000000000000000000000000000000000000000000000000000000000000000000000000000000000000000000000000000000000000020000000000000000000000000000000400000000000000000000000000000100000000000000000000000000000000000000000000000000000000000000000000000000000000000000000000000000000000000000000000000000000000000000000000000000000000000000008000000000000000000000000000000000000000000000000000000000000000000000000000000000000000000000000000000000000000000000000000000000000",
      "type": "0x2",
      "transactionHash": "0xb1ff8561f5ef91a8fce198c1a99879c9204bb23709af4e3abf2226f49f0ebffe",
      "transactionIndex": "0xb",
      "blockHash": "0xf9850fc3da541781a50d723b5c6673e2194815ed0c9fe36d9b6886c233f2c667",
      "blockNumber": "0x13a10f",
      "gasUsed": "0x752e",
      "effectiveGasPrice": "0x406e7dd4",
      "from": "0x7646e7e5e871d0d33624321c3893a89ca07f4f02",
      "to": "0xe4375a096fe20176b8fd9056c4aa699b092246ab",
      "contractAddress": null
    },
    {
      "status": "0x1",
      "cumulativeGasUsed": "0x27fff3",
      "logs": [
        {
          "address": "0xe4375a096fe20176b8fd9056c4aa699b092246ab",
          "topics": [
            "0xb449c24d261a59627b537c8c41c57ab559f4205c56bea745ff61c5521bece214"
          ],
          "data": "0x0000000000000000000000007646e7e5e871d0d33624321c3893a89ca07f4f02",
          "blockHash": "0xf9850fc3da541781a50d723b5c6673e2194815ed0c9fe36d9b6886c233f2c667",
          "blockNumber": "0x13a10f",
          "blockTimestamp": "0x68d54e34",
          "transactionHash": "0x4c70f28dfbac5b287ea66308acf492e5a6f5af29382d513e1d9cb8f05f9a8735",
          "transactionIndex": "0xc",
          "logIndex": "0x18",
          "removed": false
        }
      ],
      "logsBloom": "0x00000020000800000000000000000000000000000000000000000000000000000000000000000000000000000000000000000000000000000000000000000000000000000000000000000000000020000000000000000000000000000000400000000000000000000000000000100000000000000000000000000000000000000000000000000000000000000000000000000000000000000000000000000000000000000000000000000000000000000000000000000000000000000008000000000000000000000000000000000000000000000000000000000000000000000000000000000000000000000000000000000000000000000000000000000000",
      "type": "0x2",
      "transactionHash": "0x4c70f28dfbac5b287ea66308acf492e5a6f5af29382d513e1d9cb8f05f9a8735",
      "transactionIndex": "0xc",
      "blockHash": "0xf9850fc3da541781a50d723b5c6673e2194815ed0c9fe36d9b6886c233f2c667",
      "blockNumber": "0x13a10f",
      "gasUsed": "0x752e",
      "effectiveGasPrice": "0x406e7dd4",
      "from": "0x7646e7e5e871d0d33624321c3893a89ca07f4f02",
      "to": "0xe4375a096fe20176b8fd9056c4aa699b092246ab",
      "contractAddress": null
    },
    {
      "status": "0x1",
      "cumulativeGasUsed": "0x287521",
      "logs": [
        {
          "address": "0xe4375a096fe20176b8fd9056c4aa699b092246ab",
          "topics": [
            "0xb449c24d261a59627b537c8c41c57ab559f4205c56bea745ff61c5521bece214"
          ],
          "data": "0x0000000000000000000000007646e7e5e871d0d33624321c3893a89ca07f4f02",
          "blockHash": "0xf9850fc3da541781a50d723b5c6673e2194815ed0c9fe36d9b6886c233f2c667",
          "blockNumber": "0x13a10f",
          "blockTimestamp": "0x68d54e34",
          "transactionHash": "0xa25ae92945d0e9979664bb1fdc8a98e55af22f2a280328a426c0d2600b351435",
          "transactionIndex": "0xd",
          "logIndex": "0x19",
          "removed": false
        }
      ],
      "logsBloom": "0x00000020000800000000000000000000000000000000000000000000000000000000000000000000000000000000000000000000000000000000000000000000000000000000000000000000000020000000000000000000000000000000400000000000000000000000000000100000000000000000000000000000000000000000000000000000000000000000000000000000000000000000000000000000000000000000000000000000000000000000000000000000000000000008000000000000000000000000000000000000000000000000000000000000000000000000000000000000000000000000000000000000000000000000000000000000",
      "type": "0x2",
      "transactionHash": "0xa25ae92945d0e9979664bb1fdc8a98e55af22f2a280328a426c0d2600b351435",
      "transactionIndex": "0xd",
      "blockHash": "0xf9850fc3da541781a50d723b5c6673e2194815ed0c9fe36d9b6886c233f2c667",
      "blockNumber": "0x13a10f",
      "gasUsed": "0x752e",
      "effectiveGasPrice": "0x406e7dd4",
      "from": "0x7646e7e5e871d0d33624321c3893a89ca07f4f02",
      "to": "0xe4375a096fe20176b8fd9056c4aa699b092246ab",
      "contractAddress": null
    },
    {
      "status": "0x1",
      "cumulativeGasUsed": "0x28ea4f",
      "logs": [
        {
          "address": "0xe4375a096fe20176b8fd9056c4aa699b092246ab",
          "topics": [
            "0xb449c24d261a59627b537c8c41c57ab559f4205c56bea745ff61c5521bece214"
          ],
          "data": "0x0000000000000000000000007646e7e5e871d0d33624321c3893a89ca07f4f02",
          "blockHash": "0xf9850fc3da541781a50d723b5c6673e2194815ed0c9fe36d9b6886c233f2c667",
          "blockNumber": "0x13a10f",
          "blockTimestamp": "0x68d54e34",
          "transactionHash": "0xd9c42c9bc285f3cb6509275a79bc059fbf11bf54326837697f10bae56df116ce",
          "transactionIndex": "0xe",
          "logIndex": "0x1a",
          "removed": false
        }
      ],
      "logsBloom": "0x00000020000800000000000000000000000000000000000000000000000000000000000000000000000000000000000000000000000000000000000000000000000000000000000000000000000020000000000000000000000000000000400000000000000000000000000000100000000000000000000000000000000000000000000000000000000000000000000000000000000000000000000000000000000000000000000000000000000000000000000000000000000000000008000000000000000000000000000000000000000000000000000000000000000000000000000000000000000000000000000000000000000000000000000000000000",
      "type": "0x2",
      "transactionHash": "0xd9c42c9bc285f3cb6509275a79bc059fbf11bf54326837697f10bae56df116ce",
      "transactionIndex": "0xe",
      "blockHash": "0xf9850fc3da541781a50d723b5c6673e2194815ed0c9fe36d9b6886c233f2c667",
      "blockNumber": "0x13a10f",
      "gasUsed": "0x752e",
      "effectiveGasPrice": "0x406e7dd4",
      "from": "0x7646e7e5e871d0d33624321c3893a89ca07f4f02",
      "to": "0xe4375a096fe20176b8fd9056c4aa699b092246ab",
      "contractAddress": null
    },
    {
      "status": "0x1",
      "cumulativeGasUsed": "0x295f7d",
      "logs": [
        {
          "address": "0xe4375a096fe20176b8fd9056c4aa699b092246ab",
          "topics": [
            "0xb449c24d261a59627b537c8c41c57ab559f4205c56bea745ff61c5521bece214"
          ],
          "data": "0x0000000000000000000000007646e7e5e871d0d33624321c3893a89ca07f4f02",
          "blockHash": "0xf9850fc3da541781a50d723b5c6673e2194815ed0c9fe36d9b6886c233f2c667",
          "blockNumber": "0x13a10f",
          "blockTimestamp": "0x68d54e34",
          "transactionHash": "0xaf3eb0edd55819db679b1de5e6335df4c8b686ca06c14d7a5bc9c528612b08a7",
          "transactionIndex": "0xf",
          "logIndex": "0x1b",
          "removed": false
        }
      ],
      "logsBloom": "0x00000020000800000000000000000000000000000000000000000000000000000000000000000000000000000000000000000000000000000000000000000000000000000000000000000000000020000000000000000000000000000000400000000000000000000000000000100000000000000000000000000000000000000000000000000000000000000000000000000000000000000000000000000000000000000000000000000000000000000000000000000000000000000008000000000000000000000000000000000000000000000000000000000000000000000000000000000000000000000000000000000000000000000000000000000000",
      "type": "0x2",
      "transactionHash": "0xaf3eb0edd55819db679b1de5e6335df4c8b686ca06c14d7a5bc9c528612b08a7",
      "transactionIndex": "0xf",
      "blockHash": "0xf9850fc3da541781a50d723b5c6673e2194815ed0c9fe36d9b6886c233f2c667",
      "blockNumber": "0x13a10f",
      "gasUsed": "0x752e",
      "effectiveGasPrice": "0x406e7dd4",
      "from": "0x7646e7e5e871d0d33624321c3893a89ca07f4f02",
      "to": "0xe4375a096fe20176b8fd9056c4aa699b092246ab",
      "contractAddress": null
    },
    {
      "status": "0x1",
      "cumulativeGasUsed": "0x29d4ab",
      "logs": [
        {
          "address": "0xe4375a096fe20176b8fd9056c4aa699b092246ab",
          "topics": [
            "0xb449c24d261a59627b537c8c41c57ab559f4205c56bea745ff61c5521bece214"
          ],
          "data": "0x0000000000000000000000007646e7e5e871d0d33624321c3893a89ca07f4f02",
          "blockHash": "0xf9850fc3da541781a50d723b5c6673e2194815ed0c9fe36d9b6886c233f2c667",
          "blockNumber": "0x13a10f",
          "blockTimestamp": "0x68d54e34",
          "transactionHash": "0x6b05ae0af8948fa4ca2ac37e1dfec6990da23d4a636098b95d31a9516aa2ff3f",
          "transactionIndex": "0x10",
          "logIndex": "0x1c",
          "removed": false
        }
      ],
      "logsBloom": "0x00000020000800000000000000000000000000000000000000000000000000000000000000000000000000000000000000000000000000000000000000000000000000000000000000000000000020000000000000000000000000000000400000000000000000000000000000100000000000000000000000000000000000000000000000000000000000000000000000000000000000000000000000000000000000000000000000000000000000000000000000000000000000000008000000000000000000000000000000000000000000000000000000000000000000000000000000000000000000000000000000000000000000000000000000000000",
      "type": "0x2",
      "transactionHash": "0x6b05ae0af8948fa4ca2ac37e1dfec6990da23d4a636098b95d31a9516aa2ff3f",
      "transactionIndex": "0x10",
      "blockHash": "0xf9850fc3da541781a50d723b5c6673e2194815ed0c9fe36d9b6886c233f2c667",
      "blockNumber": "0x13a10f",
      "gasUsed": "0x752e",
      "effectiveGasPrice": "0x406e7dd4",
      "from": "0x7646e7e5e871d0d33624321c3893a89ca07f4f02",
      "to": "0xe4375a096fe20176b8fd9056c4aa699b092246ab",
      "contractAddress": null
    },
    {
      "status": "0x1",
      "cumulativeGasUsed": "0x2a49d9",
      "logs": [
        {
          "address": "0xe4375a096fe20176b8fd9056c4aa699b092246ab",
          "topics": [
            "0xb449c24d261a59627b537c8c41c57ab559f4205c56bea745ff61c5521bece214"
          ],
          "data": "0x0000000000000000000000007646e7e5e871d0d33624321c3893a89ca07f4f02",
          "blockHash": "0xf9850fc3da541781a50d723b5c6673e2194815ed0c9fe36d9b6886c233f2c667",
          "blockNumber": "0x13a10f",
          "blockTimestamp": "0x68d54e34",
          "transactionHash": "0xe0095e478f5b05df9879d34b34765c748c9bfde4dec2ff847acdd31c9f6bad76",
          "transactionIndex": "0x11",
          "logIndex": "0x1d",
          "removed": false
        }
      ],
      "logsBloom": "0x00000020000800000000000000000000000000000000000000000000000000000000000000000000000000000000000000000000000000000000000000000000000000000000000000000000000020000000000000000000000000000000400000000000000000000000000000100000000000000000000000000000000000000000000000000000000000000000000000000000000000000000000000000000000000000000000000000000000000000000000000000000000000000008000000000000000000000000000000000000000000000000000000000000000000000000000000000000000000000000000000000000000000000000000000000000",
      "type": "0x2",
      "transactionHash": "0xe0095e478f5b05df9879d34b34765c748c9bfde4dec2ff847acdd31c9f6bad76",
      "transactionIndex": "0x11",
      "blockHash": "0xf9850fc3da541781a50d723b5c6673e2194815ed0c9fe36d9b6886c233f2c667",
      "blockNumber": "0x13a10f",
      "gasUsed": "0x752e",
      "effectiveGasPrice": "0x406e7dd4",
      "from": "0x7646e7e5e871d0d33624321c3893a89ca07f4f02",
      "to": "0xe4375a096fe20176b8fd9056c4aa699b092246ab",
      "contractAddress": null
    },
    {
      "status": "0x1",
      "cumulativeGasUsed": "0x2abf07",
      "logs": [
        {
          "address": "0xe4375a096fe20176b8fd9056c4aa699b092246ab",
          "topics": [
            "0xb449c24d261a59627b537c8c41c57ab559f4205c56bea745ff61c5521bece214"
          ],
          "data": "0x0000000000000000000000007646e7e5e871d0d33624321c3893a89ca07f4f02",
          "blockHash": "0xf9850fc3da541781a50d723b5c6673e2194815ed0c9fe36d9b6886c233f2c667",
          "blockNumber": "0x13a10f",
          "blockTimestamp": "0x68d54e34",
          "transactionHash": "0x6ac60a8006d0134ed57bdf5baea539685087b9db2d09e07c70d2c917b4a7d24e",
          "transactionIndex": "0x12",
          "logIndex": "0x1e",
          "removed": false
        }
      ],
      "logsBloom": "0x00000020000800000000000000000000000000000000000000000000000000000000000000000000000000000000000000000000000000000000000000000000000000000000000000000000000020000000000000000000000000000000400000000000000000000000000000100000000000000000000000000000000000000000000000000000000000000000000000000000000000000000000000000000000000000000000000000000000000000000000000000000000000000008000000000000000000000000000000000000000000000000000000000000000000000000000000000000000000000000000000000000000000000000000000000000",
      "type": "0x2",
      "transactionHash": "0x6ac60a8006d0134ed57bdf5baea539685087b9db2d09e07c70d2c917b4a7d24e",
      "transactionIndex": "0x12",
      "blockHash": "0xf9850fc3da541781a50d723b5c6673e2194815ed0c9fe36d9b6886c233f2c667",
      "blockNumber": "0x13a10f",
      "gasUsed": "0x752e",
      "effectiveGasPrice": "0x406e7dd4",
      "from": "0x7646e7e5e871d0d33624321c3893a89ca07f4f02",
      "to": "0xe4375a096fe20176b8fd9056c4aa699b092246ab",
      "contractAddress": null
    },
    {
      "status": "0x1",
      "cumulativeGasUsed": "0x2b3435",
      "logs": [
        {
          "address": "0xe4375a096fe20176b8fd9056c4aa699b092246ab",
          "topics": [
            "0xb449c24d261a59627b537c8c41c57ab559f4205c56bea745ff61c5521bece214"
          ],
          "data": "0x0000000000000000000000007646e7e5e871d0d33624321c3893a89ca07f4f02",
          "blockHash": "0xf9850fc3da541781a50d723b5c6673e2194815ed0c9fe36d9b6886c233f2c667",
          "blockNumber": "0x13a10f",
          "blockTimestamp": "0x68d54e34",
          "transactionHash": "0x94c7c220d23e853c686c9bdecba62682ef58d52e6ac97a5e17b19cf185a68eb6",
          "transactionIndex": "0x13",
          "logIndex": "0x1f",
          "removed": false
        }
      ],
      "logsBloom": "0x00000020000800000000000000000000000000000000000000000000000000000000000000000000000000000000000000000000000000000000000000000000000000000000000000000000000020000000000000000000000000000000400000000000000000000000000000100000000000000000000000000000000000000000000000000000000000000000000000000000000000000000000000000000000000000000000000000000000000000000000000000000000000000008000000000000000000000000000000000000000000000000000000000000000000000000000000000000000000000000000000000000000000000000000000000000",
      "type": "0x2",
      "transactionHash": "0x94c7c220d23e853c686c9bdecba62682ef58d52e6ac97a5e17b19cf185a68eb6",
      "transactionIndex": "0x13",
      "blockHash": "0xf9850fc3da541781a50d723b5c6673e2194815ed0c9fe36d9b6886c233f2c667",
      "blockNumber": "0x13a10f",
      "gasUsed": "0x752e",
      "effectiveGasPrice": "0x406e7dd4",
      "from": "0x7646e7e5e871d0d33624321c3893a89ca07f4f02",
      "to": "0xe4375a096fe20176b8fd9056c4aa699b092246ab",
      "contractAddress": null
    },
    {
      "status": "0x1",
      "cumulativeGasUsed": "0x2ba963",
      "logs": [
        {
          "address": "0xe4375a096fe20176b8fd9056c4aa699b092246ab",
          "topics": [
            "0xb449c24d261a59627b537c8c41c57ab559f4205c56bea745ff61c5521bece214"
          ],
          "data": "0x0000000000000000000000007646e7e5e871d0d33624321c3893a89ca07f4f02",
          "blockHash": "0xf9850fc3da541781a50d723b5c6673e2194815ed0c9fe36d9b6886c233f2c667",
          "blockNumber": "0x13a10f",
          "blockTimestamp": "0x68d54e34",
          "transactionHash": "0x9621c093cc51c45c7836ae952a4067cc334b8c89fcd310e25a7b3d7c02511714",
          "transactionIndex": "0x14",
          "logIndex": "0x20",
          "removed": false
        }
      ],
      "logsBloom": "0x00000020000800000000000000000000000000000000000000000000000000000000000000000000000000000000000000000000000000000000000000000000000000000000000000000000000020000000000000000000000000000000400000000000000000000000000000100000000000000000000000000000000000000000000000000000000000000000000000000000000000000000000000000000000000000000000000000000000000000000000000000000000000000008000000000000000000000000000000000000000000000000000000000000000000000000000000000000000000000000000000000000000000000000000000000000",
      "type": "0x2",
      "transactionHash": "0x9621c093cc51c45c7836ae952a4067cc334b8c89fcd310e25a7b3d7c02511714",
      "transactionIndex": "0x14",
      "blockHash": "0xf9850fc3da541781a50d723b5c6673e2194815ed0c9fe36d9b6886c233f2c667",
      "blockNumber": "0x13a10f",
      "gasUsed": "0x752e",
      "effectiveGasPrice": "0x406e7dd4",
      "from": "0x7646e7e5e871d0d33624321c3893a89ca07f4f02",
      "to": "0xe4375a096fe20176b8fd9056c4aa699b092246ab",
      "contractAddress": null
    },
    {
      "status": "0x1",
      "cumulativeGasUsed": "0x2c1e91",
      "logs": [
        {
          "address": "0xe4375a096fe20176b8fd9056c4aa699b092246ab",
          "topics": [
            "0xb449c24d261a59627b537c8c41c57ab559f4205c56bea745ff61c5521bece214"
          ],
          "data": "0x0000000000000000000000007646e7e5e871d0d33624321c3893a89ca07f4f02",
          "blockHash": "0xf9850fc3da541781a50d723b5c6673e2194815ed0c9fe36d9b6886c233f2c667",
          "blockNumber": "0x13a10f",
          "blockTimestamp": "0x68d54e34",
          "transactionHash": "0xe46b299f0cd77cddac29c5d8cb277e5a48f84675a3f701faefbb800d4bae8f6a",
          "transactionIndex": "0x15",
          "logIndex": "0x21",
          "removed": false
        }
      ],
      "logsBloom": "0x00000020000800000000000000000000000000000000000000000000000000000000000000000000000000000000000000000000000000000000000000000000000000000000000000000000000020000000000000000000000000000000400000000000000000000000000000100000000000000000000000000000000000000000000000000000000000000000000000000000000000000000000000000000000000000000000000000000000000000000000000000000000000000008000000000000000000000000000000000000000000000000000000000000000000000000000000000000000000000000000000000000000000000000000000000000",
      "type": "0x2",
      "transactionHash": "0xe46b299f0cd77cddac29c5d8cb277e5a48f84675a3f701faefbb800d4bae8f6a",
      "transactionIndex": "0x15",
      "blockHash": "0xf9850fc3da541781a50d723b5c6673e2194815ed0c9fe36d9b6886c233f2c667",
      "blockNumber": "0x13a10f",
      "gasUsed": "0x752e",
      "effectiveGasPrice": "0x406e7dd4",
      "from": "0x7646e7e5e871d0d33624321c3893a89ca07f4f02",
      "to": "0xe4375a096fe20176b8fd9056c4aa699b092246ab",
      "contractAddress": null
    },
    {
      "status": "0x1",
      "cumulativeGasUsed": "0x2c93bf",
      "logs": [
        {
          "address": "0xe4375a096fe20176b8fd9056c4aa699b092246ab",
          "topics": [
            "0xb449c24d261a59627b537c8c41c57ab559f4205c56bea745ff61c5521bece214"
          ],
          "data": "0x0000000000000000000000007646e7e5e871d0d33624321c3893a89ca07f4f02",
          "blockHash": "0xf9850fc3da541781a50d723b5c6673e2194815ed0c9fe36d9b6886c233f2c667",
          "blockNumber": "0x13a10f",
          "blockTimestamp": "0x68d54e34",
          "transactionHash": "0xb9c262d0c7bbc4df7fc23c34c521661c6cf26a81fc6ebaa4fade006d8a3eb32c",
          "transactionIndex": "0x16",
          "logIndex": "0x22",
          "removed": false
        }
      ],
      "logsBloom": "0x00000020000800000000000000000000000000000000000000000000000000000000000000000000000000000000000000000000000000000000000000000000000000000000000000000000000020000000000000000000000000000000400000000000000000000000000000100000000000000000000000000000000000000000000000000000000000000000000000000000000000000000000000000000000000000000000000000000000000000000000000000000000000000008000000000000000000000000000000000000000000000000000000000000000000000000000000000000000000000000000000000000000000000000000000000000",
      "type": "0x2",
      "transactionHash": "0xb9c262d0c7bbc4df7fc23c34c521661c6cf26a81fc6ebaa4fade006d8a3eb32c",
      "transactionIndex": "0x16",
      "blockHash": "0xf9850fc3da541781a50d723b5c6673e2194815ed0c9fe36d9b6886c233f2c667",
      "blockNumber": "0x13a10f",
      "gasUsed": "0x752e",
      "effectiveGasPrice": "0x406e7dd4",
      "from": "0x7646e7e5e871d0d33624321c3893a89ca07f4f02",
      "to": "0xe4375a096fe20176b8fd9056c4aa699b092246ab",
      "contractAddress": null
    },
    {
      "status": "0x1",
      "cumulativeGasUsed": "0x2d08ed",
      "logs": [
        {
          "address": "0xe4375a096fe20176b8fd9056c4aa699b092246ab",
          "topics": [
            "0xb449c24d261a59627b537c8c41c57ab559f4205c56bea745ff61c5521bece214"
          ],
          "data": "0x0000000000000000000000007646e7e5e871d0d33624321c3893a89ca07f4f02",
          "blockHash": "0xf9850fc3da541781a50d723b5c6673e2194815ed0c9fe36d9b6886c233f2c667",
          "blockNumber": "0x13a10f",
          "blockTimestamp": "0x68d54e34",
          "transactionHash": "0x32cc90a600a8337cee213d931d9835b202b3ab337405a0928d51d3b15743775a",
          "transactionIndex": "0x17",
          "logIndex": "0x23",
          "removed": false
        }
      ],
      "logsBloom": "0x00000020000800000000000000000000000000000000000000000000000000000000000000000000000000000000000000000000000000000000000000000000000000000000000000000000000020000000000000000000000000000000400000000000000000000000000000100000000000000000000000000000000000000000000000000000000000000000000000000000000000000000000000000000000000000000000000000000000000000000000000000000000000000008000000000000000000000000000000000000000000000000000000000000000000000000000000000000000000000000000000000000000000000000000000000000",
      "type": "0x2",
      "transactionHash": "0x32cc90a600a8337cee213d931d9835b202b3ab337405a0928d51d3b15743775a",
      "transactionIndex": "0x17",
      "blockHash": "0xf9850fc3da541781a50d723b5c6673e2194815ed0c9fe36d9b6886c233f2c667",
      "blockNumber": "0x13a10f",
      "gasUsed": "0x752e",
      "effectiveGasPrice": "0x406e7dd4",
      "from": "0x7646e7e5e871d0d33624321c3893a89ca07f4f02",
      "to": "0xe4375a096fe20176b8fd9056c4aa699b092246ab",
      "contractAddress": null
    },
    {
      "status": "0x1",
      "cumulativeGasUsed": "0x2d7e1b",
      "logs": [
        {
          "address": "0xe4375a096fe20176b8fd9056c4aa699b092246ab",
          "topics": [
            "0xb449c24d261a59627b537c8c41c57ab559f4205c56bea745ff61c5521bece214"
          ],
          "data": "0x0000000000000000000000007646e7e5e871d0d33624321c3893a89ca07f4f02",
          "blockHash": "0xf9850fc3da541781a50d723b5c6673e2194815ed0c9fe36d9b6886c233f2c667",
          "blockNumber": "0x13a10f",
          "blockTimestamp": "0x68d54e34",
          "transactionHash": "0x21375b950ca56dec3174d9673449f361b80c7c3c9d905e117bd207e8264b929f",
          "transactionIndex": "0x18",
          "logIndex": "0x24",
          "removed": false
        }
      ],
      "logsBloom": "0x00000020000800000000000000000000000000000000000000000000000000000000000000000000000000000000000000000000000000000000000000000000000000000000000000000000000020000000000000000000000000000000400000000000000000000000000000100000000000000000000000000000000000000000000000000000000000000000000000000000000000000000000000000000000000000000000000000000000000000000000000000000000000000008000000000000000000000000000000000000000000000000000000000000000000000000000000000000000000000000000000000000000000000000000000000000",
      "type": "0x2",
      "transactionHash": "0x21375b950ca56dec3174d9673449f361b80c7c3c9d905e117bd207e8264b929f",
      "transactionIndex": "0x18",
      "blockHash": "0xf9850fc3da541781a50d723b5c6673e2194815ed0c9fe36d9b6886c233f2c667",
      "blockNumber": "0x13a10f",
      "gasUsed": "0x752e",
      "effectiveGasPrice": "0x406e7dd4",
      "from": "0x7646e7e5e871d0d33624321c3893a89ca07f4f02",
      "to": "0xe4375a096fe20176b8fd9056c4aa699b092246ab",
      "contractAddress": null
    },
    {
      "status": "0x1",
      "cumulativeGasUsed": "0x2df349",
      "logs": [
        {
          "address": "0xe4375a096fe20176b8fd9056c4aa699b092246ab",
          "topics": [
            "0xb449c24d261a59627b537c8c41c57ab559f4205c56bea745ff61c5521bece214"
          ],
          "data": "0x0000000000000000000000007646e7e5e871d0d33624321c3893a89ca07f4f02",
          "blockHash": "0xf9850fc3da541781a50d723b5c6673e2194815ed0c9fe36d9b6886c233f2c667",
          "blockNumber": "0x13a10f",
          "blockTimestamp": "0x68d54e34",
          "transactionHash": "0x38d70ebcc854910b7b1e1f4cde20b326600517eecf3657d965d7a995b3e2ffd3",
          "transactionIndex": "0x19",
          "logIndex": "0x25",
          "removed": false
        }
      ],
      "logsBloom": "0x00000020000800000000000000000000000000000000000000000000000000000000000000000000000000000000000000000000000000000000000000000000000000000000000000000000000020000000000000000000000000000000400000000000000000000000000000100000000000000000000000000000000000000000000000000000000000000000000000000000000000000000000000000000000000000000000000000000000000000000000000000000000000000008000000000000000000000000000000000000000000000000000000000000000000000000000000000000000000000000000000000000000000000000000000000000",
      "type": "0x2",
      "transactionHash": "0x38d70ebcc854910b7b1e1f4cde20b326600517eecf3657d965d7a995b3e2ffd3",
      "transactionIndex": "0x19",
      "blockHash": "0xf9850fc3da541781a50d723b5c6673e2194815ed0c9fe36d9b6886c233f2c667",
      "blockNumber": "0x13a10f",
      "gasUsed": "0x752e",
      "effectiveGasPrice": "0x406e7dd4",
      "from": "0x7646e7e5e871d0d33624321c3893a89ca07f4f02",
      "to": "0xe4375a096fe20176b8fd9056c4aa699b092246ab",
      "contractAddress": null
    },
    {
      "status": "0x1",
      "cumulativeGasUsed": "0x2e6877",
      "logs": [
        {
          "address": "0xe4375a096fe20176b8fd9056c4aa699b092246ab",
          "topics": [
            "0xb449c24d261a59627b537c8c41c57ab559f4205c56bea745ff61c5521bece214"
          ],
          "data": "0x0000000000000000000000007646e7e5e871d0d33624321c3893a89ca07f4f02",
          "blockHash": "0xf9850fc3da541781a50d723b5c6673e2194815ed0c9fe36d9b6886c233f2c667",
          "blockNumber": "0x13a10f",
          "blockTimestamp": "0x68d54e34",
          "transactionHash": "0x74f8dee6cd45083c6fe406f4b424f8f4d030e599340ff781254a827d0db18da1",
          "transactionIndex": "0x1a",
          "logIndex": "0x26",
          "removed": false
        }
      ],
      "logsBloom": "0x00000020000800000000000000000000000000000000000000000000000000000000000000000000000000000000000000000000000000000000000000000000000000000000000000000000000020000000000000000000000000000000400000000000000000000000000000100000000000000000000000000000000000000000000000000000000000000000000000000000000000000000000000000000000000000000000000000000000000000000000000000000000000000008000000000000000000000000000000000000000000000000000000000000000000000000000000000000000000000000000000000000000000000000000000000000",
      "type": "0x2",
      "transactionHash": "0x74f8dee6cd45083c6fe406f4b424f8f4d030e599340ff781254a827d0db18da1",
      "transactionIndex": "0x1a",
      "blockHash": "0xf9850fc3da541781a50d723b5c6673e2194815ed0c9fe36d9b6886c233f2c667",
      "blockNumber": "0x13a10f",
      "gasUsed": "0x752e",
      "effectiveGasPrice": "0x406e7dd4",
      "from": "0x7646e7e5e871d0d33624321c3893a89ca07f4f02",
      "to": "0xe4375a096fe20176b8fd9056c4aa699b092246ab",
      "contractAddress": null
    },
    {
      "status": "0x1",
      "cumulativeGasUsed": "0x2edda5",
      "logs": [
        {
          "address": "0xe4375a096fe20176b8fd9056c4aa699b092246ab",
          "topics": [
            "0xb449c24d261a59627b537c8c41c57ab559f4205c56bea745ff61c5521bece214"
          ],
          "data": "0x0000000000000000000000007646e7e5e871d0d33624321c3893a89ca07f4f02",
          "blockHash": "0xf9850fc3da541781a50d723b5c6673e2194815ed0c9fe36d9b6886c233f2c667",
          "blockNumber": "0x13a10f",
          "blockTimestamp": "0x68d54e34",
          "transactionHash": "0xda7f681570e1cfcf2313e1f9507c88c89c3147b0ca7009c2ddc5bfe7cf9fd004",
          "transactionIndex": "0x1b",
          "logIndex": "0x27",
          "removed": false
        }
      ],
      "logsBloom": "0x00000020000800000000000000000000000000000000000000000000000000000000000000000000000000000000000000000000000000000000000000000000000000000000000000000000000020000000000000000000000000000000400000000000000000000000000000100000000000000000000000000000000000000000000000000000000000000000000000000000000000000000000000000000000000000000000000000000000000000000000000000000000000000008000000000000000000000000000000000000000000000000000000000000000000000000000000000000000000000000000000000000000000000000000000000000",
      "type": "0x2",
      "transactionHash": "0xda7f681570e1cfcf2313e1f9507c88c89c3147b0ca7009c2ddc5bfe7cf9fd004",
      "transactionIndex": "0x1b",
      "blockHash": "0xf9850fc3da541781a50d723b5c6673e2194815ed0c9fe36d9b6886c233f2c667",
      "blockNumber": "0x13a10f",
      "gasUsed": "0x752e",
      "effectiveGasPrice": "0x406e7dd4",
      "from": "0x7646e7e5e871d0d33624321c3893a89ca07f4f02",
      "to": "0xe4375a096fe20176b8fd9056c4aa699b092246ab",
      "contractAddress": null
    },
    {
      "status": "0x1",
      "cumulativeGasUsed": "0x2f52d3",
      "logs": [
        {
          "address": "0xe4375a096fe20176b8fd9056c4aa699b092246ab",
          "topics": [
            "0xb449c24d261a59627b537c8c41c57ab559f4205c56bea745ff61c5521bece214"
          ],
          "data": "0x0000000000000000000000007646e7e5e871d0d33624321c3893a89ca07f4f02",
          "blockHash": "0xf9850fc3da541781a50d723b5c6673e2194815ed0c9fe36d9b6886c233f2c667",
          "blockNumber": "0x13a10f",
          "blockTimestamp": "0x68d54e34",
          "transactionHash": "0x351ecbca50ba5073fb938d8df8314c8c0cb6b1a1d1cbe4cada0f770e176a152b",
          "transactionIndex": "0x1c",
          "logIndex": "0x28",
          "removed": false
        }
      ],
      "logsBloom": "0x00000020000800000000000000000000000000000000000000000000000000000000000000000000000000000000000000000000000000000000000000000000000000000000000000000000000020000000000000000000000000000000400000000000000000000000000000100000000000000000000000000000000000000000000000000000000000000000000000000000000000000000000000000000000000000000000000000000000000000000000000000000000000000008000000000000000000000000000000000000000000000000000000000000000000000000000000000000000000000000000000000000000000000000000000000000",
      "type": "0x2",
      "transactionHash": "0x351ecbca50ba5073fb938d8df8314c8c0cb6b1a1d1cbe4cada0f770e176a152b",
      "transactionIndex": "0x1c",
      "blockHash": "0xf9850fc3da541781a50d723b5c6673e2194815ed0c9fe36d9b6886c233f2c667",
      "blockNumber": "0x13a10f",
      "gasUsed": "0x752e",
      "effectiveGasPrice": "0x406e7dd4",
      "from": "0x7646e7e5e871d0d33624321c3893a89ca07f4f02",
      "to": "0xe4375a096fe20176b8fd9056c4aa699b092246ab",
      "contractAddress": null
    },
    {
      "status": "0x1",
      "cumulativeGasUsed": "0x2fc801",
      "logs": [
        {
          "address": "0xe4375a096fe20176b8fd9056c4aa699b092246ab",
          "topics": [
            "0xb449c24d261a59627b537c8c41c57ab559f4205c56bea745ff61c5521bece214"
          ],
          "data": "0x0000000000000000000000007646e7e5e871d0d33624321c3893a89ca07f4f02",
          "blockHash": "0xf9850fc3da541781a50d723b5c6673e2194815ed0c9fe36d9b6886c233f2c667",
          "blockNumber": "0x13a10f",
          "blockTimestamp": "0x68d54e34",
          "transactionHash": "0xbb29f1ca64b44d559ddca4ed518e774089448ad85968e2e1d4f8066c76f255d3",
          "transactionIndex": "0x1d",
          "logIndex": "0x29",
          "removed": false
        }
      ],
      "logsBloom": "0x00000020000800000000000000000000000000000000000000000000000000000000000000000000000000000000000000000000000000000000000000000000000000000000000000000000000020000000000000000000000000000000400000000000000000000000000000100000000000000000000000000000000000000000000000000000000000000000000000000000000000000000000000000000000000000000000000000000000000000000000000000000000000000008000000000000000000000000000000000000000000000000000000000000000000000000000000000000000000000000000000000000000000000000000000000000",
      "type": "0x2",
      "transactionHash": "0xbb29f1ca64b44d559ddca4ed518e774089448ad85968e2e1d4f8066c76f255d3",
      "transactionIndex": "0x1d",
      "blockHash": "0xf9850fc3da541781a50d723b5c6673e2194815ed0c9fe36d9b6886c233f2c667",
      "blockNumber": "0x13a10f",
      "gasUsed": "0x752e",
      "effectiveGasPrice": "0x406e7dd4",
      "from": "0x7646e7e5e871d0d33624321c3893a89ca07f4f02",
      "to": "0xe4375a096fe20176b8fd9056c4aa699b092246ab",
      "contractAddress": null
    },
    {
      "status": "0x1",
      "cumulativeGasUsed": "0x303d2f",
      "logs": [
        {
          "address": "0xe4375a096fe20176b8fd9056c4aa699b092246ab",
          "topics": [
            "0xb449c24d261a59627b537c8c41c57ab559f4205c56bea745ff61c5521bece214"
          ],
          "data": "0x0000000000000000000000007646e7e5e871d0d33624321c3893a89ca07f4f02",
          "blockHash": "0xf9850fc3da541781a50d723b5c6673e2194815ed0c9fe36d9b6886c233f2c667",
          "blockNumber": "0x13a10f",
          "blockTimestamp": "0x68d54e34",
          "transactionHash": "0x40ef7dcd79093ce4ed1b7aec4e5d5ae1fd92a3f3211986937071c199375f227b",
          "transactionIndex": "0x1e",
          "logIndex": "0x2a",
          "removed": false
        }
      ],
      "logsBloom": "0x00000020000800000000000000000000000000000000000000000000000000000000000000000000000000000000000000000000000000000000000000000000000000000000000000000000000020000000000000000000000000000000400000000000000000000000000000100000000000000000000000000000000000000000000000000000000000000000000000000000000000000000000000000000000000000000000000000000000000000000000000000000000000000008000000000000000000000000000000000000000000000000000000000000000000000000000000000000000000000000000000000000000000000000000000000000",
      "type": "0x2",
      "transactionHash": "0x40ef7dcd79093ce4ed1b7aec4e5d5ae1fd92a3f3211986937071c199375f227b",
      "transactionIndex": "0x1e",
      "blockHash": "0xf9850fc3da541781a50d723b5c6673e2194815ed0c9fe36d9b6886c233f2c667",
      "blockNumber": "0x13a10f",
      "gasUsed": "0x752e",
      "effectiveGasPrice": "0x406e7dd4",
      "from": "0x7646e7e5e871d0d33624321c3893a89ca07f4f02",
      "to": "0xe4375a096fe20176b8fd9056c4aa699b092246ab",
      "contractAddress": null
    },
    {
      "status": "0x1",
      "cumulativeGasUsed": "0x30b25d",
      "logs": [
        {
          "address": "0xe4375a096fe20176b8fd9056c4aa699b092246ab",
          "topics": [
            "0xb449c24d261a59627b537c8c41c57ab559f4205c56bea745ff61c5521bece214"
          ],
          "data": "0x0000000000000000000000007646e7e5e871d0d33624321c3893a89ca07f4f02",
          "blockHash": "0xf9850fc3da541781a50d723b5c6673e2194815ed0c9fe36d9b6886c233f2c667",
          "blockNumber": "0x13a10f",
          "blockTimestamp": "0x68d54e34",
          "transactionHash": "0x66d42a556ac6f3a75ccde24a456d90d4d505f0b79eb4a2a68927ede241f761c5",
          "transactionIndex": "0x1f",
          "logIndex": "0x2b",
          "removed": false
        }
      ],
      "logsBloom": "0x00000020000800000000000000000000000000000000000000000000000000000000000000000000000000000000000000000000000000000000000000000000000000000000000000000000000020000000000000000000000000000000400000000000000000000000000000100000000000000000000000000000000000000000000000000000000000000000000000000000000000000000000000000000000000000000000000000000000000000000000000000000000000000008000000000000000000000000000000000000000000000000000000000000000000000000000000000000000000000000000000000000000000000000000000000000",
      "type": "0x2",
      "transactionHash": "0x66d42a556ac6f3a75ccde24a456d90d4d505f0b79eb4a2a68927ede241f761c5",
      "transactionIndex": "0x1f",
      "blockHash": "0xf9850fc3da541781a50d723b5c6673e2194815ed0c9fe36d9b6886c233f2c667",
      "blockNumber": "0x13a10f",
      "gasUsed": "0x752e",
      "effectiveGasPrice": "0x406e7dd4",
      "from": "0x7646e7e5e871d0d33624321c3893a89ca07f4f02",
      "to": "0xe4375a096fe20176b8fd9056c4aa699b092246ab",
      "contractAddress": null
    },
    {
      "status": "0x1",
      "cumulativeGasUsed": "0x31278b",
      "logs": [
        {
          "address": "0xe4375a096fe20176b8fd9056c4aa699b092246ab",
          "topics": [
            "0xb449c24d261a59627b537c8c41c57ab559f4205c56bea745ff61c5521bece214"
          ],
          "data": "0x0000000000000000000000007646e7e5e871d0d33624321c3893a89ca07f4f02",
          "blockHash": "0xf9850fc3da541781a50d723b5c6673e2194815ed0c9fe36d9b6886c233f2c667",
          "blockNumber": "0x13a10f",
          "blockTimestamp": "0x68d54e34",
          "transactionHash": "0x90091ef6dd5356e46c76bff9b05375c09dc2ae0a16f9ef56a28199b1e819d6e4",
          "transactionIndex": "0x20",
          "logIndex": "0x2c",
          "removed": false
        }
      ],
      "logsBloom": "0x00000020000800000000000000000000000000000000000000000000000000000000000000000000000000000000000000000000000000000000000000000000000000000000000000000000000020000000000000000000000000000000400000000000000000000000000000100000000000000000000000000000000000000000000000000000000000000000000000000000000000000000000000000000000000000000000000000000000000000000000000000000000000000008000000000000000000000000000000000000000000000000000000000000000000000000000000000000000000000000000000000000000000000000000000000000",
      "type": "0x2",
      "transactionHash": "0x90091ef6dd5356e46c76bff9b05375c09dc2ae0a16f9ef56a28199b1e819d6e4",
      "transactionIndex": "0x20",
      "blockHash": "0xf9850fc3da541781a50d723b5c6673e2194815ed0c9fe36d9b6886c233f2c667",
      "blockNumber": "0x13a10f",
      "gasUsed": "0x752e",
      "effectiveGasPrice": "0x406e7dd4",
      "from": "0x7646e7e5e871d0d33624321c3893a89ca07f4f02",
      "to": "0xe4375a096fe20176b8fd9056c4aa699b092246ab",
      "contractAddress": null
    },
    {
      "status": "0x1",
      "cumulativeGasUsed": "0x319cb9",
      "logs": [
        {
          "address": "0xe4375a096fe20176b8fd9056c4aa699b092246ab",
          "topics": [
            "0xb449c24d261a59627b537c8c41c57ab559f4205c56bea745ff61c5521bece214"
          ],
          "data": "0x0000000000000000000000007646e7e5e871d0d33624321c3893a89ca07f4f02",
          "blockHash": "0xf9850fc3da541781a50d723b5c6673e2194815ed0c9fe36d9b6886c233f2c667",
          "blockNumber": "0x13a10f",
          "blockTimestamp": "0x68d54e34",
          "transactionHash": "0xfe23b612fcd1c73ee9381d43954301a5217695fa37d7d2d8ec15f6535ec79719",
          "transactionIndex": "0x21",
          "logIndex": "0x2d",
          "removed": false
        }
      ],
      "logsBloom": "0x00000020000800000000000000000000000000000000000000000000000000000000000000000000000000000000000000000000000000000000000000000000000000000000000000000000000020000000000000000000000000000000400000000000000000000000000000100000000000000000000000000000000000000000000000000000000000000000000000000000000000000000000000000000000000000000000000000000000000000000000000000000000000000008000000000000000000000000000000000000000000000000000000000000000000000000000000000000000000000000000000000000000000000000000000000000",
      "type": "0x2",
      "transactionHash": "0xfe23b612fcd1c73ee9381d43954301a5217695fa37d7d2d8ec15f6535ec79719",
      "transactionIndex": "0x21",
      "blockHash": "0xf9850fc3da541781a50d723b5c6673e2194815ed0c9fe36d9b6886c233f2c667",
      "blockNumber": "0x13a10f",
      "gasUsed": "0x752e",
      "effectiveGasPrice": "0x406e7dd4",
      "from": "0x7646e7e5e871d0d33624321c3893a89ca07f4f02",
      "to": "0xe4375a096fe20176b8fd9056c4aa699b092246ab",
      "contractAddress": null
    },
    {
      "status": "0x1",
      "cumulativeGasUsed": "0x3211e7",
      "logs": [
        {
          "address": "0xe4375a096fe20176b8fd9056c4aa699b092246ab",
          "topics": [
            "0xb449c24d261a59627b537c8c41c57ab559f4205c56bea745ff61c5521bece214"
          ],
          "data": "0x0000000000000000000000007646e7e5e871d0d33624321c3893a89ca07f4f02",
          "blockHash": "0xf9850fc3da541781a50d723b5c6673e2194815ed0c9fe36d9b6886c233f2c667",
          "blockNumber": "0x13a10f",
          "blockTimestamp": "0x68d54e34",
          "transactionHash": "0x6b4395b560a548f6bd34ae0e218613035df6ff24261f6399d4ff1429dbe99823",
          "transactionIndex": "0x22",
          "logIndex": "0x2e",
          "removed": false
        }
      ],
      "logsBloom": "0x00000020000800000000000000000000000000000000000000000000000000000000000000000000000000000000000000000000000000000000000000000000000000000000000000000000000020000000000000000000000000000000400000000000000000000000000000100000000000000000000000000000000000000000000000000000000000000000000000000000000000000000000000000000000000000000000000000000000000000000000000000000000000000008000000000000000000000000000000000000000000000000000000000000000000000000000000000000000000000000000000000000000000000000000000000000",
      "type": "0x2",
      "transactionHash": "0x6b4395b560a548f6bd34ae0e218613035df6ff24261f6399d4ff1429dbe99823",
      "transactionIndex": "0x22",
      "blockHash": "0xf9850fc3da541781a50d723b5c6673e2194815ed0c9fe36d9b6886c233f2c667",
      "blockNumber": "0x13a10f",
      "gasUsed": "0x752e",
      "effectiveGasPrice": "0x406e7dd4",
      "from": "0x7646e7e5e871d0d33624321c3893a89ca07f4f02",
      "to": "0xe4375a096fe20176b8fd9056c4aa699b092246ab",
      "contractAddress": null
    },
    {
      "status": "0x1",
      "cumulativeGasUsed": "0x328715",
      "logs": [
        {
          "address": "0xe4375a096fe20176b8fd9056c4aa699b092246ab",
          "topics": [
            "0xb449c24d261a59627b537c8c41c57ab559f4205c56bea745ff61c5521bece214"
          ],
          "data": "0x0000000000000000000000007646e7e5e871d0d33624321c3893a89ca07f4f02",
          "blockHash": "0xf9850fc3da541781a50d723b5c6673e2194815ed0c9fe36d9b6886c233f2c667",
          "blockNumber": "0x13a10f",
          "blockTimestamp": "0x68d54e34",
          "transactionHash": "0x81d1bd89dc02750c3fcf4a17b71caceddfa8c0e31286d45905f2031d36290a91",
          "transactionIndex": "0x23",
          "logIndex": "0x2f",
          "removed": false
        }
      ],
      "logsBloom": "0x00000020000800000000000000000000000000000000000000000000000000000000000000000000000000000000000000000000000000000000000000000000000000000000000000000000000020000000000000000000000000000000400000000000000000000000000000100000000000000000000000000000000000000000000000000000000000000000000000000000000000000000000000000000000000000000000000000000000000000000000000000000000000000008000000000000000000000000000000000000000000000000000000000000000000000000000000000000000000000000000000000000000000000000000000000000",
      "type": "0x2",
      "transactionHash": "0x81d1bd89dc02750c3fcf4a17b71caceddfa8c0e31286d45905f2031d36290a91",
      "transactionIndex": "0x23",
      "blockHash": "0xf9850fc3da541781a50d723b5c6673e2194815ed0c9fe36d9b6886c233f2c667",
      "blockNumber": "0x13a10f",
      "gasUsed": "0x752e",
      "effectiveGasPrice": "0x406e7dd4",
      "from": "0x7646e7e5e871d0d33624321c3893a89ca07f4f02",
      "to": "0xe4375a096fe20176b8fd9056c4aa699b092246ab",
      "contractAddress": null
    },
    {
      "status": "0x1",
      "cumulativeGasUsed": "0x32fc43",
      "logs": [
        {
          "address": "0xe4375a096fe20176b8fd9056c4aa699b092246ab",
          "topics": [
            "0xb449c24d261a59627b537c8c41c57ab559f4205c56bea745ff61c5521bece214"
          ],
          "data": "0x0000000000000000000000007646e7e5e871d0d33624321c3893a89ca07f4f02",
          "blockHash": "0xf9850fc3da541781a50d723b5c6673e2194815ed0c9fe36d9b6886c233f2c667",
          "blockNumber": "0x13a10f",
          "blockTimestamp": "0x68d54e34",
          "transactionHash": "0x2b0fd079113cdc497f127b1fed8f54ef380c0d0bb9c6e852d7ea3c5ababda6e3",
          "transactionIndex": "0x24",
          "logIndex": "0x30",
          "removed": false
        }
      ],
      "logsBloom": "0x00000020000800000000000000000000000000000000000000000000000000000000000000000000000000000000000000000000000000000000000000000000000000000000000000000000000020000000000000000000000000000000400000000000000000000000000000100000000000000000000000000000000000000000000000000000000000000000000000000000000000000000000000000000000000000000000000000000000000000000000000000000000000000008000000000000000000000000000000000000000000000000000000000000000000000000000000000000000000000000000000000000000000000000000000000000",
      "type": "0x2",
      "transactionHash": "0x2b0fd079113cdc497f127b1fed8f54ef380c0d0bb9c6e852d7ea3c5ababda6e3",
      "transactionIndex": "0x24",
      "blockHash": "0xf9850fc3da541781a50d723b5c6673e2194815ed0c9fe36d9b6886c233f2c667",
      "blockNumber": "0x13a10f",
      "gasUsed": "0x752e",
      "effectiveGasPrice": "0x406e7dd4",
      "from": "0x7646e7e5e871d0d33624321c3893a89ca07f4f02",
      "to": "0xe4375a096fe20176b8fd9056c4aa699b092246ab",
      "contractAddress": null
    },
    {
      "status": "0x1",
      "cumulativeGasUsed": "0x337171",
      "logs": [
        {
          "address": "0xe4375a096fe20176b8fd9056c4aa699b092246ab",
          "topics": [
            "0xb449c24d261a59627b537c8c41c57ab559f4205c56bea745ff61c5521bece214"
          ],
          "data": "0x0000000000000000000000007646e7e5e871d0d33624321c3893a89ca07f4f02",
          "blockHash": "0xf9850fc3da541781a50d723b5c6673e2194815ed0c9fe36d9b6886c233f2c667",
          "blockNumber": "0x13a10f",
          "blockTimestamp": "0x68d54e34",
          "transactionHash": "0x6b32138d2e2861b2c5e73f3d4583ec84deb1484df9afd77a999fada5e82ad4a2",
          "transactionIndex": "0x25",
          "logIndex": "0x31",
          "removed": false
        }
      ],
      "logsBloom": "0x00000020000800000000000000000000000000000000000000000000000000000000000000000000000000000000000000000000000000000000000000000000000000000000000000000000000020000000000000000000000000000000400000000000000000000000000000100000000000000000000000000000000000000000000000000000000000000000000000000000000000000000000000000000000000000000000000000000000000000000000000000000000000000008000000000000000000000000000000000000000000000000000000000000000000000000000000000000000000000000000000000000000000000000000000000000",
      "type": "0x2",
      "transactionHash": "0x6b32138d2e2861b2c5e73f3d4583ec84deb1484df9afd77a999fada5e82ad4a2",
      "transactionIndex": "0x25",
      "blockHash": "0xf9850fc3da541781a50d723b5c6673e2194815ed0c9fe36d9b6886c233f2c667",
      "blockNumber": "0x13a10f",
      "gasUsed": "0x752e",
      "effectiveGasPrice": "0x406e7dd4",
      "from": "0x7646e7e5e871d0d33624321c3893a89ca07f4f02",
      "to": "0xe4375a096fe20176b8fd9056c4aa699b092246ab",
      "contractAddress": null
    },
    {
      "status": "0x1",
      "cumulativeGasUsed": "0x33e69f",
      "logs": [
        {
          "address": "0xe4375a096fe20176b8fd9056c4aa699b092246ab",
          "topics": [
            "0xb449c24d261a59627b537c8c41c57ab559f4205c56bea745ff61c5521bece214"
          ],
          "data": "0x0000000000000000000000007646e7e5e871d0d33624321c3893a89ca07f4f02",
          "blockHash": "0xf9850fc3da541781a50d723b5c6673e2194815ed0c9fe36d9b6886c233f2c667",
          "blockNumber": "0x13a10f",
          "blockTimestamp": "0x68d54e34",
          "transactionHash": "0x952dfbb43241f31c6ea9c1a0358ba193b8896f9b2b16083d5da74640ba3cfb5a",
          "transactionIndex": "0x26",
          "logIndex": "0x32",
          "removed": false
        }
      ],
      "logsBloom": "0x00000020000800000000000000000000000000000000000000000000000000000000000000000000000000000000000000000000000000000000000000000000000000000000000000000000000020000000000000000000000000000000400000000000000000000000000000100000000000000000000000000000000000000000000000000000000000000000000000000000000000000000000000000000000000000000000000000000000000000000000000000000000000000008000000000000000000000000000000000000000000000000000000000000000000000000000000000000000000000000000000000000000000000000000000000000",
      "type": "0x2",
      "transactionHash": "0x952dfbb43241f31c6ea9c1a0358ba193b8896f9b2b16083d5da74640ba3cfb5a",
      "transactionIndex": "0x26",
      "blockHash": "0xf9850fc3da541781a50d723b5c6673e2194815ed0c9fe36d9b6886c233f2c667",
      "blockNumber": "0x13a10f",
      "gasUsed": "0x752e",
      "effectiveGasPrice": "0x406e7dd4",
      "from": "0x7646e7e5e871d0d33624321c3893a89ca07f4f02",
      "to": "0xe4375a096fe20176b8fd9056c4aa699b092246ab",
      "contractAddress": null
    },
    {
      "status": "0x1",
      "cumulativeGasUsed": "0x345bcd",
      "logs": [
        {
          "address": "0xe4375a096fe20176b8fd9056c4aa699b092246ab",
          "topics": [
            "0xb449c24d261a59627b537c8c41c57ab559f4205c56bea745ff61c5521bece214"
          ],
          "data": "0x0000000000000000000000007646e7e5e871d0d33624321c3893a89ca07f4f02",
          "blockHash": "0xf9850fc3da541781a50d723b5c6673e2194815ed0c9fe36d9b6886c233f2c667",
          "blockNumber": "0x13a10f",
          "blockTimestamp": "0x68d54e34",
          "transactionHash": "0x89e6404645cfd32bf917f3b2eb10b4ba402d285f90373bf2103ab8d6a7549b9d",
          "transactionIndex": "0x27",
          "logIndex": "0x33",
          "removed": false
        }
      ],
      "logsBloom": "0x00000020000800000000000000000000000000000000000000000000000000000000000000000000000000000000000000000000000000000000000000000000000000000000000000000000000020000000000000000000000000000000400000000000000000000000000000100000000000000000000000000000000000000000000000000000000000000000000000000000000000000000000000000000000000000000000000000000000000000000000000000000000000000008000000000000000000000000000000000000000000000000000000000000000000000000000000000000000000000000000000000000000000000000000000000000",
      "type": "0x2",
      "transactionHash": "0x89e6404645cfd32bf917f3b2eb10b4ba402d285f90373bf2103ab8d6a7549b9d",
      "transactionIndex": "0x27",
      "blockHash": "0xf9850fc3da541781a50d723b5c6673e2194815ed0c9fe36d9b6886c233f2c667",
      "blockNumber": "0x13a10f",
      "gasUsed": "0x752e",
      "effectiveGasPrice": "0x406e7dd4",
      "from": "0x7646e7e5e871d0d33624321c3893a89ca07f4f02",
      "to": "0xe4375a096fe20176b8fd9056c4aa699b092246ab",
      "contractAddress": null
    },
    {
      "status": "0x1",
      "cumulativeGasUsed": "0x34d0fb",
      "logs": [
        {
          "address": "0xe4375a096fe20176b8fd9056c4aa699b092246ab",
          "topics": [
            "0xb449c24d261a59627b537c8c41c57ab559f4205c56bea745ff61c5521bece214"
          ],
          "data": "0x0000000000000000000000007646e7e5e871d0d33624321c3893a89ca07f4f02",
          "blockHash": "0xf9850fc3da541781a50d723b5c6673e2194815ed0c9fe36d9b6886c233f2c667",
          "blockNumber": "0x13a10f",
          "blockTimestamp": "0x68d54e34",
          "transactionHash": "0x5457e46670b8be7d76569bbd79be216c9b83eb105fe05caad080aaae4437b554",
          "transactionIndex": "0x28",
          "logIndex": "0x34",
          "removed": false
        }
      ],
      "logsBloom": "0x00000020000800000000000000000000000000000000000000000000000000000000000000000000000000000000000000000000000000000000000000000000000000000000000000000000000020000000000000000000000000000000400000000000000000000000000000100000000000000000000000000000000000000000000000000000000000000000000000000000000000000000000000000000000000000000000000000000000000000000000000000000000000000008000000000000000000000000000000000000000000000000000000000000000000000000000000000000000000000000000000000000000000000000000000000000",
      "type": "0x2",
      "transactionHash": "0x5457e46670b8be7d76569bbd79be216c9b83eb105fe05caad080aaae4437b554",
      "transactionIndex": "0x28",
      "blockHash": "0xf9850fc3da541781a50d723b5c6673e2194815ed0c9fe36d9b6886c233f2c667",
      "blockNumber": "0x13a10f",
      "gasUsed": "0x752e",
      "effectiveGasPrice": "0x406e7dd4",
      "from": "0x7646e7e5e871d0d33624321c3893a89ca07f4f02",
      "to": "0xe4375a096fe20176b8fd9056c4aa699b092246ab",
      "contractAddress": null
    },
    {
      "status": "0x1",
      "cumulativeGasUsed": "0x354629",
      "logs": [
        {
          "address": "0xe4375a096fe20176b8fd9056c4aa699b092246ab",
          "topics": [
            "0xb449c24d261a59627b537c8c41c57ab559f4205c56bea745ff61c5521bece214"
          ],
          "data": "0x0000000000000000000000007646e7e5e871d0d33624321c3893a89ca07f4f02",
          "blockHash": "0xf9850fc3da541781a50d723b5c6673e2194815ed0c9fe36d9b6886c233f2c667",
          "blockNumber": "0x13a10f",
          "blockTimestamp": "0x68d54e34",
          "transactionHash": "0x0b93ce62ec0826268b54fb0d67dade111907a2ba9f67f02d03456102b8e2ae35",
          "transactionIndex": "0x29",
          "logIndex": "0x35",
          "removed": false
        }
      ],
      "logsBloom": "0x00000020000800000000000000000000000000000000000000000000000000000000000000000000000000000000000000000000000000000000000000000000000000000000000000000000000020000000000000000000000000000000400000000000000000000000000000100000000000000000000000000000000000000000000000000000000000000000000000000000000000000000000000000000000000000000000000000000000000000000000000000000000000000008000000000000000000000000000000000000000000000000000000000000000000000000000000000000000000000000000000000000000000000000000000000000",
      "type": "0x2",
      "transactionHash": "0x0b93ce62ec0826268b54fb0d67dade111907a2ba9f67f02d03456102b8e2ae35",
      "transactionIndex": "0x29",
      "blockHash": "0xf9850fc3da541781a50d723b5c6673e2194815ed0c9fe36d9b6886c233f2c667",
      "blockNumber": "0x13a10f",
      "gasUsed": "0x752e",
      "effectiveGasPrice": "0x406e7dd4",
      "from": "0x7646e7e5e871d0d33624321c3893a89ca07f4f02",
      "to": "0xe4375a096fe20176b8fd9056c4aa699b092246ab",
      "contractAddress": null
    },
    {
      "status": "0x1",
      "cumulativeGasUsed": "0x35bb57",
      "logs": [
        {
          "address": "0xe4375a096fe20176b8fd9056c4aa699b092246ab",
          "topics": [
            "0xb449c24d261a59627b537c8c41c57ab559f4205c56bea745ff61c5521bece214"
          ],
          "data": "0x0000000000000000000000007646e7e5e871d0d33624321c3893a89ca07f4f02",
          "blockHash": "0xf9850fc3da541781a50d723b5c6673e2194815ed0c9fe36d9b6886c233f2c667",
          "blockNumber": "0x13a10f",
          "blockTimestamp": "0x68d54e34",
          "transactionHash": "0xcd0d7cdb37c85a2b15b108fcf33907713955dbe8175f5db3d1ebb85deb807ad9",
          "transactionIndex": "0x2a",
          "logIndex": "0x36",
          "removed": false
        }
      ],
      "logsBloom": "0x00000020000800000000000000000000000000000000000000000000000000000000000000000000000000000000000000000000000000000000000000000000000000000000000000000000000020000000000000000000000000000000400000000000000000000000000000100000000000000000000000000000000000000000000000000000000000000000000000000000000000000000000000000000000000000000000000000000000000000000000000000000000000000008000000000000000000000000000000000000000000000000000000000000000000000000000000000000000000000000000000000000000000000000000000000000",
      "type": "0x2",
      "transactionHash": "0xcd0d7cdb37c85a2b15b108fcf33907713955dbe8175f5db3d1ebb85deb807ad9",
      "transactionIndex": "0x2a",
      "blockHash": "0xf9850fc3da541781a50d723b5c6673e2194815ed0c9fe36d9b6886c233f2c667",
      "blockNumber": "0x13a10f",
      "gasUsed": "0x752e",
      "effectiveGasPrice": "0x406e7dd4",
      "from": "0x7646e7e5e871d0d33624321c3893a89ca07f4f02",
      "to": "0xe4375a096fe20176b8fd9056c4aa699b092246ab",
      "contractAddress": null
    },
    {
      "status": "0x1",
      "cumulativeGasUsed": "0x363085",
      "logs": [
        {
          "address": "0xe4375a096fe20176b8fd9056c4aa699b092246ab",
          "topics": [
            "0xb449c24d261a59627b537c8c41c57ab559f4205c56bea745ff61c5521bece214"
          ],
          "data": "0x0000000000000000000000007646e7e5e871d0d33624321c3893a89ca07f4f02",
          "blockHash": "0xf9850fc3da541781a50d723b5c6673e2194815ed0c9fe36d9b6886c233f2c667",
          "blockNumber": "0x13a10f",
          "blockTimestamp": "0x68d54e34",
          "transactionHash": "0xd4801ace56aaf3775548a6c09b88ef164da54251f68b175bbd039c8c8c3c057b",
          "transactionIndex": "0x2b",
          "logIndex": "0x37",
          "removed": false
        }
      ],
      "logsBloom": "0x00000020000800000000000000000000000000000000000000000000000000000000000000000000000000000000000000000000000000000000000000000000000000000000000000000000000020000000000000000000000000000000400000000000000000000000000000100000000000000000000000000000000000000000000000000000000000000000000000000000000000000000000000000000000000000000000000000000000000000000000000000000000000000008000000000000000000000000000000000000000000000000000000000000000000000000000000000000000000000000000000000000000000000000000000000000",
      "type": "0x2",
      "transactionHash": "0xd4801ace56aaf3775548a6c09b88ef164da54251f68b175bbd039c8c8c3c057b",
      "transactionIndex": "0x2b",
      "blockHash": "0xf9850fc3da541781a50d723b5c6673e2194815ed0c9fe36d9b6886c233f2c667",
      "blockNumber": "0x13a10f",
      "gasUsed": "0x752e",
      "effectiveGasPrice": "0x406e7dd4",
      "from": "0x7646e7e5e871d0d33624321c3893a89ca07f4f02",
      "to": "0xe4375a096fe20176b8fd9056c4aa699b092246ab",
      "contractAddress": null
    },
    {
      "status": "0x1",
      "cumulativeGasUsed": "0x36a5b3",
      "logs": [
        {
          "address": "0xe4375a096fe20176b8fd9056c4aa699b092246ab",
          "topics": [
            "0xb449c24d261a59627b537c8c41c57ab559f4205c56bea745ff61c5521bece214"
          ],
          "data": "0x0000000000000000000000007646e7e5e871d0d33624321c3893a89ca07f4f02",
          "blockHash": "0xf9850fc3da541781a50d723b5c6673e2194815ed0c9fe36d9b6886c233f2c667",
          "blockNumber": "0x13a10f",
          "blockTimestamp": "0x68d54e34",
          "transactionHash": "0x1f723fc91a9436ed3aa15351c6da2a44f6a199e98d72974effa6dc9db1372740",
          "transactionIndex": "0x2c",
          "logIndex": "0x38",
          "removed": false
        }
      ],
      "logsBloom": "0x00000020000800000000000000000000000000000000000000000000000000000000000000000000000000000000000000000000000000000000000000000000000000000000000000000000000020000000000000000000000000000000400000000000000000000000000000100000000000000000000000000000000000000000000000000000000000000000000000000000000000000000000000000000000000000000000000000000000000000000000000000000000000000008000000000000000000000000000000000000000000000000000000000000000000000000000000000000000000000000000000000000000000000000000000000000",
      "type": "0x2",
      "transactionHash": "0x1f723fc91a9436ed3aa15351c6da2a44f6a199e98d72974effa6dc9db1372740",
      "transactionIndex": "0x2c",
      "blockHash": "0xf9850fc3da541781a50d723b5c6673e2194815ed0c9fe36d9b6886c233f2c667",
      "blockNumber": "0x13a10f",
      "gasUsed": "0x752e",
      "effectiveGasPrice": "0x406e7dd4",
      "from": "0x7646e7e5e871d0d33624321c3893a89ca07f4f02",
      "to": "0xe4375a096fe20176b8fd9056c4aa699b092246ab",
      "contractAddress": null
    },
    {
      "status": "0x1",
      "cumulativeGasUsed": "0x371ae1",
      "logs": [
        {
          "address": "0xe4375a096fe20176b8fd9056c4aa699b092246ab",
          "topics": [
            "0xb449c24d261a59627b537c8c41c57ab559f4205c56bea745ff61c5521bece214"
          ],
          "data": "0x0000000000000000000000007646e7e5e871d0d33624321c3893a89ca07f4f02",
          "blockHash": "0xf9850fc3da541781a50d723b5c6673e2194815ed0c9fe36d9b6886c233f2c667",
          "blockNumber": "0x13a10f",
          "blockTimestamp": "0x68d54e34",
          "transactionHash": "0xcdc8481232c80842f8bcbd519df54c1d637323bc07c3e73d86710b78e1bbb118",
          "transactionIndex": "0x2d",
          "logIndex": "0x39",
          "removed": false
        }
      ],
      "logsBloom": "0x00000020000800000000000000000000000000000000000000000000000000000000000000000000000000000000000000000000000000000000000000000000000000000000000000000000000020000000000000000000000000000000400000000000000000000000000000100000000000000000000000000000000000000000000000000000000000000000000000000000000000000000000000000000000000000000000000000000000000000000000000000000000000000008000000000000000000000000000000000000000000000000000000000000000000000000000000000000000000000000000000000000000000000000000000000000",
      "type": "0x2",
      "transactionHash": "0xcdc8481232c80842f8bcbd519df54c1d637323bc07c3e73d86710b78e1bbb118",
      "transactionIndex": "0x2d",
      "blockHash": "0xf9850fc3da541781a50d723b5c6673e2194815ed0c9fe36d9b6886c233f2c667",
      "blockNumber": "0x13a10f",
      "gasUsed": "0x752e",
      "effectiveGasPrice": "0x406e7dd4",
      "from": "0x7646e7e5e871d0d33624321c3893a89ca07f4f02",
      "to": "0xe4375a096fe20176b8fd9056c4aa699b092246ab",
      "contractAddress": null
    },
    {
      "status": "0x1",
      "cumulativeGasUsed": "0x37900f",
      "logs": [
        {
          "address": "0xe4375a096fe20176b8fd9056c4aa699b092246ab",
          "topics": [
            "0xb449c24d261a59627b537c8c41c57ab559f4205c56bea745ff61c5521bece214"
          ],
          "data": "0x0000000000000000000000007646e7e5e871d0d33624321c3893a89ca07f4f02",
          "blockHash": "0xf9850fc3da541781a50d723b5c6673e2194815ed0c9fe36d9b6886c233f2c667",
          "blockNumber": "0x13a10f",
          "blockTimestamp": "0x68d54e34",
          "transactionHash": "0x2a6a2b2adf01dfa12d77bab1786c2ea5cf76f84649a53c91b73aac0736342e79",
          "transactionIndex": "0x2e",
          "logIndex": "0x3a",
          "removed": false
        }
      ],
      "logsBloom": "0x00000020000800000000000000000000000000000000000000000000000000000000000000000000000000000000000000000000000000000000000000000000000000000000000000000000000020000000000000000000000000000000400000000000000000000000000000100000000000000000000000000000000000000000000000000000000000000000000000000000000000000000000000000000000000000000000000000000000000000000000000000000000000000008000000000000000000000000000000000000000000000000000000000000000000000000000000000000000000000000000000000000000000000000000000000000",
      "type": "0x2",
      "transactionHash": "0x2a6a2b2adf01dfa12d77bab1786c2ea5cf76f84649a53c91b73aac0736342e79",
      "transactionIndex": "0x2e",
      "blockHash": "0xf9850fc3da541781a50d723b5c6673e2194815ed0c9fe36d9b6886c233f2c667",
      "blockNumber": "0x13a10f",
      "gasUsed": "0x752e",
      "effectiveGasPrice": "0x406e7dd4",
      "from": "0x7646e7e5e871d0d33624321c3893a89ca07f4f02",
      "to": "0xe4375a096fe20176b8fd9056c4aa699b092246ab",
      "contractAddress": null
    },
    {
      "status": "0x1",
      "cumulativeGasUsed": "0x38053d",
      "logs": [
        {
          "address": "0xe4375a096fe20176b8fd9056c4aa699b092246ab",
          "topics": [
            "0xb449c24d261a59627b537c8c41c57ab559f4205c56bea745ff61c5521bece214"
          ],
          "data": "0x0000000000000000000000007646e7e5e871d0d33624321c3893a89ca07f4f02",
          "blockHash": "0xf9850fc3da541781a50d723b5c6673e2194815ed0c9fe36d9b6886c233f2c667",
          "blockNumber": "0x13a10f",
          "blockTimestamp": "0x68d54e34",
          "transactionHash": "0x3099db749117c218d5e9123e297124f592c8f6dc94a212416998e8c6aa0bfecf",
          "transactionIndex": "0x2f",
          "logIndex": "0x3b",
          "removed": false
        }
      ],
      "logsBloom": "0x00000020000800000000000000000000000000000000000000000000000000000000000000000000000000000000000000000000000000000000000000000000000000000000000000000000000020000000000000000000000000000000400000000000000000000000000000100000000000000000000000000000000000000000000000000000000000000000000000000000000000000000000000000000000000000000000000000000000000000000000000000000000000000008000000000000000000000000000000000000000000000000000000000000000000000000000000000000000000000000000000000000000000000000000000000000",
      "type": "0x2",
      "transactionHash": "0x3099db749117c218d5e9123e297124f592c8f6dc94a212416998e8c6aa0bfecf",
      "transactionIndex": "0x2f",
      "blockHash": "0xf9850fc3da541781a50d723b5c6673e2194815ed0c9fe36d9b6886c233f2c667",
      "blockNumber": "0x13a10f",
      "gasUsed": "0x752e",
      "effectiveGasPrice": "0x406e7dd4",
      "from": "0x7646e7e5e871d0d33624321c3893a89ca07f4f02",
      "to": "0xe4375a096fe20176b8fd9056c4aa699b092246ab",
      "contractAddress": null
    },
    {
      "status": "0x1",
      "cumulativeGasUsed": "0x387a6b",
      "logs": [
        {
          "address": "0xe4375a096fe20176b8fd9056c4aa699b092246ab",
          "topics": [
            "0xb449c24d261a59627b537c8c41c57ab559f4205c56bea745ff61c5521bece214"
          ],
          "data": "0x0000000000000000000000007646e7e5e871d0d33624321c3893a89ca07f4f02",
          "blockHash": "0xf9850fc3da541781a50d723b5c6673e2194815ed0c9fe36d9b6886c233f2c667",
          "blockNumber": "0x13a10f",
          "blockTimestamp": "0x68d54e34",
          "transactionHash": "0xc9ef26373d7bff3347b240ef446ccc99521c4c57d914d9e74eefd90ebe4168db",
          "transactionIndex": "0x30",
          "logIndex": "0x3c",
          "removed": false
        }
      ],
      "logsBloom": "0x00000020000800000000000000000000000000000000000000000000000000000000000000000000000000000000000000000000000000000000000000000000000000000000000000000000000020000000000000000000000000000000400000000000000000000000000000100000000000000000000000000000000000000000000000000000000000000000000000000000000000000000000000000000000000000000000000000000000000000000000000000000000000000008000000000000000000000000000000000000000000000000000000000000000000000000000000000000000000000000000000000000000000000000000000000000",
      "type": "0x2",
      "transactionHash": "0xc9ef26373d7bff3347b240ef446ccc99521c4c57d914d9e74eefd90ebe4168db",
      "transactionIndex": "0x30",
      "blockHash": "0xf9850fc3da541781a50d723b5c6673e2194815ed0c9fe36d9b6886c233f2c667",
      "blockNumber": "0x13a10f",
      "gasUsed": "0x752e",
      "effectiveGasPrice": "0x406e7dd4",
      "from": "0x7646e7e5e871d0d33624321c3893a89ca07f4f02",
      "to": "0xe4375a096fe20176b8fd9056c4aa699b092246ab",
      "contractAddress": null
    },
    {
      "status": "0x1",
      "cumulativeGasUsed": "0x38ef99",
      "logs": [
        {
          "address": "0xe4375a096fe20176b8fd9056c4aa699b092246ab",
          "topics": [
            "0xb449c24d261a59627b537c8c41c57ab559f4205c56bea745ff61c5521bece214"
          ],
          "data": "0x0000000000000000000000007646e7e5e871d0d33624321c3893a89ca07f4f02",
          "blockHash": "0xf9850fc3da541781a50d723b5c6673e2194815ed0c9fe36d9b6886c233f2c667",
          "blockNumber": "0x13a10f",
          "blockTimestamp": "0x68d54e34",
          "transactionHash": "0xf5ab34f7d11ef330be6c09004fdba7206ba69bd9c96cfb02ae29bf3755a99584",
          "transactionIndex": "0x31",
          "logIndex": "0x3d",
          "removed": false
        }
      ],
      "logsBloom": "0x00000020000800000000000000000000000000000000000000000000000000000000000000000000000000000000000000000000000000000000000000000000000000000000000000000000000020000000000000000000000000000000400000000000000000000000000000100000000000000000000000000000000000000000000000000000000000000000000000000000000000000000000000000000000000000000000000000000000000000000000000000000000000000008000000000000000000000000000000000000000000000000000000000000000000000000000000000000000000000000000000000000000000000000000000000000",
      "type": "0x2",
      "transactionHash": "0xf5ab34f7d11ef330be6c09004fdba7206ba69bd9c96cfb02ae29bf3755a99584",
      "transactionIndex": "0x31",
      "blockHash": "0xf9850fc3da541781a50d723b5c6673e2194815ed0c9fe36d9b6886c233f2c667",
      "blockNumber": "0x13a10f",
      "gasUsed": "0x752e",
      "effectiveGasPrice": "0x406e7dd4",
      "from": "0x7646e7e5e871d0d33624321c3893a89ca07f4f02",
      "to": "0xe4375a096fe20176b8fd9056c4aa699b092246ab",
      "contractAddress": null
    },
    {
      "status": "0x1",
      "cumulativeGasUsed": "0x3964c7",
      "logs": [
        {
          "address": "0xe4375a096fe20176b8fd9056c4aa699b092246ab",
          "topics": [
            "0xb449c24d261a59627b537c8c41c57ab559f4205c56bea745ff61c5521bece214"
          ],
          "data": "0x0000000000000000000000007646e7e5e871d0d33624321c3893a89ca07f4f02",
          "blockHash": "0xf9850fc3da541781a50d723b5c6673e2194815ed0c9fe36d9b6886c233f2c667",
          "blockNumber": "0x13a10f",
          "blockTimestamp": "0x68d54e34",
          "transactionHash": "0xdbf544266c113b0cbfa017feafe80d71cd7be9fb1ef4e8377cd9937506a84077",
          "transactionIndex": "0x32",
          "logIndex": "0x3e",
          "removed": false
        }
      ],
      "logsBloom": "0x00000020000800000000000000000000000000000000000000000000000000000000000000000000000000000000000000000000000000000000000000000000000000000000000000000000000020000000000000000000000000000000400000000000000000000000000000100000000000000000000000000000000000000000000000000000000000000000000000000000000000000000000000000000000000000000000000000000000000000000000000000000000000000008000000000000000000000000000000000000000000000000000000000000000000000000000000000000000000000000000000000000000000000000000000000000",
      "type": "0x2",
      "transactionHash": "0xdbf544266c113b0cbfa017feafe80d71cd7be9fb1ef4e8377cd9937506a84077",
      "transactionIndex": "0x32",
      "blockHash": "0xf9850fc3da541781a50d723b5c6673e2194815ed0c9fe36d9b6886c233f2c667",
      "blockNumber": "0x13a10f",
      "gasUsed": "0x752e",
      "effectiveGasPrice": "0x406e7dd4",
      "from": "0x7646e7e5e871d0d33624321c3893a89ca07f4f02",
      "to": "0xe4375a096fe20176b8fd9056c4aa699b092246ab",
      "contractAddress": null
    },
    {
      "status": "0x1",
      "cumulativeGasUsed": "0x39d9f5",
      "logs": [
        {
          "address": "0xe4375a096fe20176b8fd9056c4aa699b092246ab",
          "topics": [
            "0xb449c24d261a59627b537c8c41c57ab559f4205c56bea745ff61c5521bece214"
          ],
          "data": "0x0000000000000000000000007646e7e5e871d0d33624321c3893a89ca07f4f02",
          "blockHash": "0xf9850fc3da541781a50d723b5c6673e2194815ed0c9fe36d9b6886c233f2c667",
          "blockNumber": "0x13a10f",
          "blockTimestamp": "0x68d54e34",
          "transactionHash": "0x557fbc0e589ae8797aed8709e101f9035da6dcc1ba4dcd5d77490c27b29c65b5",
          "transactionIndex": "0x33",
          "logIndex": "0x3f",
          "removed": false
        }
      ],
      "logsBloom": "0x00000020000800000000000000000000000000000000000000000000000000000000000000000000000000000000000000000000000000000000000000000000000000000000000000000000000020000000000000000000000000000000400000000000000000000000000000100000000000000000000000000000000000000000000000000000000000000000000000000000000000000000000000000000000000000000000000000000000000000000000000000000000000000008000000000000000000000000000000000000000000000000000000000000000000000000000000000000000000000000000000000000000000000000000000000000",
      "type": "0x2",
      "transactionHash": "0x557fbc0e589ae8797aed8709e101f9035da6dcc1ba4dcd5d77490c27b29c65b5",
      "transactionIndex": "0x33",
      "blockHash": "0xf9850fc3da541781a50d723b5c6673e2194815ed0c9fe36d9b6886c233f2c667",
      "blockNumber": "0x13a10f",
      "gasUsed": "0x752e",
      "effectiveGasPrice": "0x406e7dd4",
      "from": "0x7646e7e5e871d0d33624321c3893a89ca07f4f02",
      "to": "0xe4375a096fe20176b8fd9056c4aa699b092246ab",
      "contractAddress": null
    }
  ],
  "libraries": [],
  "pending": [],
  "returns": {},
  "timestamp": 1758809656754,
  "chain": 560048,
  "commit": null
}