{
  "transactions": [
    {
      "hash": "0x3fab6f2ed1c4fd4947cf88131fcc842f37f74d225e4ef4e24019877cf3a2f4ab",
      "transactionType": "CREATE",
      "contractName": "Faucet",
      "contractAddress": "0xe4375a096fe20176b8fd9056c4aa699b092246ab",
      "function": null,
      "arguments": null,
      "transaction": {
        "from": "0x7646e7e5e871d0d33624321c3893a89ca07f4f02",
        "gas": "0x2fa79",
        "value": "0x2b5e3af16b1880000",
        "input": "0x60806040526101c1806100115f395ff3fe608060405260043610610021575f3560e01c80631e83409a1461002c57610028565b3661002857005b5f5ffd5b348015610037575f5ffd5b50610052600480360381019061004d9190610138565b610054565b005b8073ffffffffffffffffffffffffffffffffffffffff166108fc670de0b6b3a764000090811502906040515f60405180830381858888f1935050505015801561009f573d5f5f3e3d5ffd5b507fb449c24d261a59627b537c8c41c57ab559f4205c56bea745ff61c5521bece214816040516100cf9190610172565b60405180910390a150565b5f5ffd5b5f73ffffffffffffffffffffffffffffffffffffffff82169050919050565b5f610107826100de565b9050919050565b610117816100fd565b8114610121575f5ffd5b50565b5f813590506101328161010e565b92915050565b5f6020828403121561014d5761014c6100da565b5b5f61015a84828501610124565b91505092915050565b61016c816100fd565b82525050565b5f6020820190506101855f830184610163565b9291505056fea2646970667358221220c13d1230a678573cc558a8e0264b981cacee8eb6cb8da8cd050571fe280b3a4c64736f6c634300081c0033",
        "nonce": "0x7",
        "chainId": "0x88bb0"
      },
      "additionalContracts": [],
      "isFixedGasLimit": false
    },
    {
      "hash": "0x548cd4d7bc705cc5c531ef2a050a2d6045905bc83342fda6cc2ce586c7eef9e4",
      "transactionType": "CALL",
      "contractName": "Faucet",
      "contractAddress": "0xe4375a096fe20176b8fd9056c4aa699b092246ab",
      "function": "claim(address)",
      "arguments": [
        "0x7646e7e5E871d0d33624321c3893A89Ca07f4f02"
      ],
      "transaction": {
        "from": "0x7646e7e5e871d0d33624321c3893a89ca07f4f02",
        "to": "0xe4375a096fe20176b8fd9056c4aa699b092246ab",
        "gas": "0xa1d9",
        "value": "0x0",
        "input": "0x1e83409a0000000000000000000000007646e7e5e871d0d33624321c3893a89ca07f4f02",
        "nonce": "0x8",
        "chainId": "0x88bb0"
      },
      "additionalContracts": [],
      "isFixedGasLimit": false
    }
  ],
  "receipts": [
    {
      "status": "0x1",
      "cumulativeGasUsed": "0x8d5cf0",
      "logs": [],
      "logsBloom": "0x00000000000000000000000000000000000000000000000000000000000000000000000000000000000000000000000000000000000000000000000000000000000000000000000000000000000000000000000000000000000000000000000000000000000000000000000000000000000000000000000000000000000000000000000000000000000000000000000000000000000000000000000000000000000000000000000000000000000000000000000000000000000000000000000000000000000000000000000000000000000000000000000000000000000000000000000000000000000000000000000000000000000000000000000000000000",
      "type": "0x2",
      "transactionHash": "0x3fab6f2ed1c4fd4947cf88131fcc842f37f74d225e4ef4e24019877cf3a2f4ab",
      "transactionIndex": "0x12",
      "blockHash": "0x3cda285dcee5a77f8a83e0537aeb6ae1e2c5b4d94cb7815df864e12138178e39",
      "blockNumber": "0x13a0e3",
      "gasUsed": "0x24a85",
      "effectiveGasPrice": "0x3f515159",
      "from": "0x7646e7e5e871d0d33624321c3893a89ca07f4f02",
      "to": null,
      "contractAddress": "0xe4375a096fe20176b8fd9056c4aa699b092246ab"
    },
    {
      "status": "0x1",
      "cumulativeGasUsed": "0x8dd21e",
      "logs": [
        {
          "address": "0xe4375a096fe20176b8fd9056c4aa699b092246ab",
          "topics": [
            "0xb449c24d261a59627b537c8c41c57ab559f4205c56bea745ff61c5521bece214"
          ],
          "data": "0x0000000000000000000000007646e7e5e871d0d33624321c3893a89ca07f4f02",
          "blockHash": "0x3cda285dcee5a77f8a83e0537aeb6ae1e2c5b4d94cb7815df864e12138178e39",
          "blockNumber": "0x13a0e3",
          "blockTimestamp": "0x68d54bf4",
          "transactionHash": "0x548cd4d7bc705cc5c531ef2a050a2d6045905bc83342fda6cc2ce586c7eef9e4",
          "transactionIndex": "0x13",
          "logIndex": "0x54",
          "removed": false
        }
      ],
      "logsBloom": "0x00000020000800000000000000000000000000000000000000000000000000000000000000000000000000000000000000000000000000000000000000000000000000000000000000000000000020000000000000000000000000000000400000000000000000000000000000100000000000000000000000000000000000000000000000000000000000000000000000000000000000000000000000000000000000000000000000000000000000000000000000000000000000000008000000000000000000000000000000000000000000000000000000000000000000000000000000000000000000000000000000000000000000000000000000000000",
      "type": "0x2",
      "transactionHash": "0x548cd4d7bc705cc5c531ef2a050a2d6045905bc83342fda6cc2ce586c7eef9e4",
      "transactionIndex": "0x13",
      "blockHash": "0x3cda285dcee5a77f8a83e0537aeb6ae1e2c5b4d94cb7815df864e12138178e39",
      "blockNumber": "0x13a0e3",
      "gasUsed": "0x752e",
      "effectiveGasPrice": "0x3f515159",
      "from": "0x7646e7e5e871d0d33624321c3893a89ca07f4f02",
      "to": "0xe4375a096fe20176b8fd9056c4aa699b092246ab",
      "contractAddress": null
    }
  ],
  "libraries": [],
  "pending": [],
  "returns": {},
  "timestamp": 1758809078825,
  "chain": 560048,
  "commit": null
}