{
  "transactions": [
    {
      "hash": "0x5d450f5e7d268f8781b119dc378e91027bdeb2396e8d6dc538e07abef19cceca",
      "transactionType": "CREATE",
      "contractName": "Faucet",
      "contractAddress": "0x1be5e8494d9a34c450a0fe91c87dd6184d67d34a",
      "function": null,
      "arguments": null,
      "transaction": {
        "from": "0x7646e7e5e871d0d33624321c3893a89ca07f4f02",
        "gas": "0x5bdbb",
        "value": "0x2b5e3af16b1880000",
        "input": "0x6080604052335f5f6101000a81548173ffffffffffffffffffffffffffffffffffffffff021916908373ffffffffffffffffffffffffffffffffffffffff1602179055506103dd806100505f395ff3fe60806040526004361061002c575f3560e01c80631e83409a14610037578063e2664e491461005f57610033565b3661003357005b5f5ffd5b348015610042575f5ffd5b5061005d600480360381019061005891906102dc565b610075565b005b34801561006a575f5ffd5b506100736101a2565b005b60015f8273ffffffffffffffffffffffffffffffffffffffff1673ffffffffffffffffffffffffffffffffffffffff1681526020019081526020015f205f9054906101000a900460ff16156100c8575f5ffd5b6001805f8373ffffffffffffffffffffffffffffffffffffffff1673ffffffffffffffffffffffffffffffffffffffff1681526020019081526020015f205f6101000a81548160ff0219169083151502179055508073ffffffffffffffffffffffffffffffffffffffff166108fc670de0b6b3a764000090811502906040515f60405180830381858888f19350505050158015610167573d5f5f3e3d5ffd5b507fb449c24d261a59627b537c8c41c57ab559f4205c56bea745ff61c5521bece214816040516101979190610316565b60405180910390a150565b5f5f9054906101000a900473ffffffffffffffffffffffffffffffffffffffff1673ffffffffffffffffffffffffffffffffffffffff163373ffffffffffffffffffffffffffffffffffffffff1614610230576040517f08c379a000000000000000000000000000000000000000000000000000000000815260040161022790610389565b60405180910390fd5b3373ffffffffffffffffffffffffffffffffffffffff166108fc670de0b6b3a764000090811502906040515f60405180830381858888f1935050505015801561027b573d5f5f3e3d5ffd5b50565b5f5ffd5b5f73ffffffffffffffffffffffffffffffffffffffff82169050919050565b5f6102ab82610282565b9050919050565b6102bb816102a1565b81146102c5575f5ffd5b50565b5f813590506102d6816102b2565b92915050565b5f602082840312156102f1576102f061027e565b5b5f6102fe848285016102c8565b91505092915050565b610310816102a1565b82525050565b5f6020820190506103295f830184610307565b92915050565b5f82825260208201905092915050565b7f4e6f74206f776e657200000000000000000000000000000000000000000000005f82015250565b5f61037360098361032f565b915061037e8261033f565b602082019050919050565b5f6020820190508181035f8301526103a081610367565b905091905056fea2646970667358221220531d736a6ae56c9e1805182af0efe80ccdbbbf17081663e2c4b98255bbbcd6da64736f6c634300081c0033",
        "nonce": "0x3c",
        "chainId": "0x88bb0"
      },
      "additionalContracts": [],
      "isFixedGasLimit": false
    },
    {
      "hash": "0x7eba6c13f84877306841350dd87accff00b3d97b2ebbeabf2ed3b46b23c10548",
      "transactionType": "CALL",
      "contractName": "Faucet",
      "contractAddress": "0x1be5e8494d9a34c450a0fe91c87dd6184d67d34a",
      "function": "claim(address)",
      "arguments": [
        "0x7646e7e5E871d0d33624321c3893A89Ca07f4f02"
      ],
      "transaction": {
        "from": "0x7646e7e5e871d0d33624321c3893a89ca07f4f02",
        "to": "0x1be5e8494d9a34c450a0fe91c87dd6184d67d34a",
        "gas": "0x11b3b",
        "value": "0x0",
        "input": "0x1e83409a0000000000000000000000007646e7e5e871d0d33624321c3893a89ca07f4f02",
        "nonce": "0x3d",
        "chainId": "0x88bb0"
      },
      "additionalContracts": [],
      "isFixedGasLimit": false
    }
  ],
  "receipts": [
    {
      "status": "0x1",
      "cumulativeGasUsed": "0x192601",
      "logs": [],
      "logsBloom": "0x00000000000000000000000000000000000000000000000000000000000000000000000000000000000000000000000000000000000000000000000000000000000000000000000000000000000000000000000000000000000000000000000000000000000000000000000000000000000000000000000000000000000000000000000000000000000000000000000000000000000000000000000000000000000000000000000000000000000000000000000000000000000000000000000000000000000000000000000000000000000000000000000000000000000000000000000000000000000000000000000000000000000000000000000000000000",
      "type": "0x2",
      "transactionHash": "0x5d450f5e7d268f8781b119dc378e91027bdeb2396e8d6dc538e07abef19cceca",
      "transactionIndex": "0x4",
      "blockHash": "0x7ae6615ece43b8f7fab1170cc3a52e0b1bb1e276136ea0b3bd47faa1f5ac7965",
      "blockNumber": "0x13a121",
      "gasUsed": "0x46a90",
      "effectiveGasPrice": "0x3e0df074",
      "from": "0x7646e7e5e871d0d33624321c3893a89ca07f4f02",
      "to": null,
      "contractAddress": "0x1be5e8494d9a34c450a0fe91c87dd6184d67d34a"
    },
    {
      "status": "0x1",
      "cumulativeGasUsed": "0x19f310",
      "logs": [
        {
          "address": "0x1be5e8494d9a34c450a0fe91c87dd6184d67d34a",
          "topics": [
            "0xb449c24d261a59627b537c8c41c57ab559f4205c56bea745ff61c5521bece214"
          ],
          "data": "0x0000000000000000000000007646e7e5e871d0d33624321c3893a89ca07f4f02",
          "blockHash": "0x7ae6615ece43b8f7fab1170cc3a52e0b1bb1e276136ea0b3bd47faa1f5ac7965",
          "blockNumber": "0x13a121",
          "blockTimestamp": "0x68d54f24",
          "transactionHash": "0x7eba6c13f84877306841350dd87accff00b3d97b2ebbeabf2ed3b46b23c10548",
          "transactionIndex": "0x5",
          "logIndex": "0x4",
          "removed": false
        }
      ],
      "logsBloom": "0x00000020000000000000000000000000000000000000000000000000000000000000000000000000000000000000000000000000000000000000000000000000000000000000000000000000000020000000000000000000000000000000000000000000000000000000000000000000000000000000000000000000000000000000000020000000000000000000000000000000000000000000000000000000000000000000004000000000000000000000000000000000000000000008000000000000000000000000000000000000000000000000000000000000000000000000000000000000000000000000000000002000000000000000000000000000",
      "type": "0x2",
      "transactionHash": "0x7eba6c13f84877306841350dd87accff00b3d97b2ebbeabf2ed3b46b23c10548",
      "transactionIndex": "0x5",
      "blockHash": "0x7ae6615ece43b8f7fab1170cc3a52e0b1bb1e276136ea0b3bd47faa1f5ac7965",
      "blockNumber": "0x13a121",
      "gasUsed": "0xcd0f",
      "effectiveGasPrice": "0x3e0df074",
      "from": "0x7646e7e5e871d0d33624321c3893a89ca07f4f02",
      "to": "0x1be5e8494d9a34c450a0fe91c87dd6184d67d34a",
      "contractAddress": null
    }
  ],
  "libraries": [],
  "pending": [],
  "returns": {},
  "timestamp": 1758809903461,
  "chain": 560048,
  "commit": null
}